{
  "contractName": "LandRegister",
  "abi": [
    {
      "inputs": [
        {
          "internalType": "address",
          "name": "token",
          "type": "address"
        }
      ],
      "stateMutability": "nonpayable",
      "type": "constructor"
    },
    {
      "anonymous": false,
      "inputs": [
        {
          "indexed": true,
          "internalType": "address",
          "name": "owner",
          "type": "address"
        },
        {
          "indexed": true,
          "internalType": "address",
          "name": "approved",
          "type": "address"
        },
        {
          "indexed": true,
          "internalType": "uint256",
          "name": "tokenId",
          "type": "uint256"
        }
      ],
      "name": "Approval",
      "type": "event"
    },
    {
      "anonymous": false,
      "inputs": [
        {
          "indexed": true,
          "internalType": "address",
          "name": "owner",
          "type": "address"
        },
        {
          "indexed": true,
          "internalType": "address",
          "name": "operator",
          "type": "address"
        },
        {
          "indexed": false,
          "internalType": "bool",
          "name": "approved",
          "type": "bool"
        }
      ],
      "name": "ApprovalForAll",
      "type": "event"
    },
    {
      "anonymous": false,
      "inputs": [
        {
          "indexed": true,
          "internalType": "address",
          "name": "from",
          "type": "address"
        },
        {
          "indexed": true,
          "internalType": "address",
          "name": "to",
          "type": "address"
        },
        {
          "indexed": true,
          "internalType": "uint256",
          "name": "tokenId",
          "type": "uint256"
        }
      ],
      "name": "Transfer",
      "type": "event"
    },
    {
      "inputs": [
        {
          "internalType": "address",
          "name": "",
          "type": "address"
        }
      ],
      "name": "AdminWhitelist",
      "outputs": [
        {
          "internalType": "bool",
          "name": "",
          "type": "bool"
        }
      ],
      "stateMutability": "view",
      "type": "function",
      "constant": true
    },
    {
      "inputs": [],
      "name": "Counter",
      "outputs": [
        {
          "internalType": "uint256",
          "name": "",
          "type": "uint256"
        }
      ],
      "stateMutability": "view",
      "type": "function",
      "constant": true
    },
    {
      "inputs": [
        {
          "internalType": "address",
          "name": "",
          "type": "address"
        }
      ],
      "name": "allBuyers",
      "outputs": [
        {
          "internalType": "address",
          "name": "wallet",
          "type": "address"
        },
        {
          "internalType": "string",
          "name": "metadata",
          "type": "string"
        }
      ],
      "stateMutability": "view",
      "type": "function",
      "constant": true
    },
    {
      "inputs": [
        {
          "internalType": "uint256",
          "name": "",
          "type": "uint256"
        }
      ],
      "name": "allLands",
      "outputs": [
        {
          "internalType": "uint256",
          "name": "id",
          "type": "uint256"
        },
        {
          "internalType": "string",
          "name": "name",
          "type": "string"
        },
        {
          "internalType": "address",
          "name": "CurrentOwner",
          "type": "address"
        },
        {
          "internalType": "string",
          "name": "metadata",
          "type": "string"
        },
        {
          "internalType": "address",
          "name": "token",
          "type": "address"
        },
        {
          "internalType": "uint256",
          "name": "currPrice",
          "type": "uint256"
        },
        {
          "internalType": "enum LandRegister.Status",
          "name": "status",
          "type": "uint8"
        }
      ],
      "stateMutability": "view",
      "type": "function",
      "constant": true
    },
    {
      "inputs": [
        {
          "internalType": "uint256",
          "name": "",
          "type": "uint256"
        }
      ],
      "name": "allrequests",
      "outputs": [
        {
          "internalType": "uint256",
          "name": "LandId",
          "type": "uint256"
        },
        {
          "internalType": "uint256",
          "name": "bid",
          "type": "uint256"
        },
        {
          "internalType": "bool",
          "name": "state",
          "type": "bool"
        }
      ],
      "stateMutability": "view",
      "type": "function",
      "constant": true
    },
    {
      "inputs": [
        {
          "internalType": "address",
          "name": "owner",
          "type": "address"
        }
      ],
      "name": "balanceOf",
      "outputs": [
        {
          "internalType": "uint256",
          "name": "",
          "type": "uint256"
        }
      ],
      "stateMutability": "view",
      "type": "function",
      "constant": true
    },
    {
      "inputs": [
        {
          "internalType": "uint256",
          "name": "tokenId",
          "type": "uint256"
        }
      ],
      "name": "getApproved",
      "outputs": [
        {
          "internalType": "address",
          "name": "",
          "type": "address"
        }
      ],
      "stateMutability": "view",
      "type": "function",
      "constant": true
    },
    {
      "inputs": [
        {
          "internalType": "address",
          "name": "owner",
          "type": "address"
        },
        {
          "internalType": "address",
          "name": "operator",
          "type": "address"
        }
      ],
      "name": "isApprovedForAll",
      "outputs": [
        {
          "internalType": "bool",
          "name": "",
          "type": "bool"
        }
      ],
      "stateMutability": "view",
      "type": "function",
      "constant": true
    },
    {
      "inputs": [],
      "name": "name",
      "outputs": [
        {
          "internalType": "string",
          "name": "",
          "type": "string"
        }
      ],
      "stateMutability": "view",
      "type": "function",
      "constant": true
    },
    {
      "inputs": [
        {
          "internalType": "uint256",
          "name": "tokenId",
          "type": "uint256"
        }
      ],
      "name": "ownerOf",
      "outputs": [
        {
          "internalType": "address",
          "name": "",
          "type": "address"
        }
      ],
      "stateMutability": "view",
      "type": "function",
      "constant": true
    },
    {
      "inputs": [],
      "name": "reqCounter",
      "outputs": [
        {
          "internalType": "uint256",
          "name": "",
          "type": "uint256"
        }
      ],
      "stateMutability": "view",
      "type": "function",
      "constant": true
    },
    {
      "inputs": [
        {
          "internalType": "address",
          "name": "from",
          "type": "address"
        },
        {
          "internalType": "address",
          "name": "to",
          "type": "address"
        },
        {
          "internalType": "uint256",
          "name": "tokenId",
          "type": "uint256"
        }
      ],
      "name": "safeTransferFrom",
      "outputs": [],
      "stateMutability": "nonpayable",
      "type": "function"
    },
    {
      "inputs": [
        {
          "internalType": "address",
          "name": "from",
          "type": "address"
        },
        {
          "internalType": "address",
          "name": "to",
          "type": "address"
        },
        {
          "internalType": "uint256",
          "name": "tokenId",
          "type": "uint256"
        },
        {
          "internalType": "bytes",
          "name": "data",
          "type": "bytes"
        }
      ],
      "name": "safeTransferFrom",
      "outputs": [],
      "stateMutability": "nonpayable",
      "type": "function"
    },
    {
      "inputs": [
        {
          "internalType": "address",
          "name": "operator",
          "type": "address"
        },
        {
          "internalType": "bool",
          "name": "approved",
          "type": "bool"
        }
      ],
      "name": "setApprovalForAll",
      "outputs": [],
      "stateMutability": "nonpayable",
      "type": "function"
    },
    {
      "inputs": [],
      "name": "superAdmin",
      "outputs": [
        {
          "internalType": "address",
          "name": "",
          "type": "address"
        }
      ],
      "stateMutability": "view",
      "type": "function",
      "constant": true
    },
    {
      "inputs": [
        {
          "internalType": "bytes4",
          "name": "interfaceId",
          "type": "bytes4"
        }
      ],
      "name": "supportsInterface",
      "outputs": [
        {
          "internalType": "bool",
          "name": "",
          "type": "bool"
        }
      ],
      "stateMutability": "view",
      "type": "function",
      "constant": true
    },
    {
      "inputs": [],
      "name": "symbol",
      "outputs": [
        {
          "internalType": "string",
          "name": "",
          "type": "string"
        }
      ],
      "stateMutability": "view",
      "type": "function",
      "constant": true
    },
    {
      "inputs": [],
      "name": "token1",
      "outputs": [
        {
          "internalType": "contract IERC20",
          "name": "",
          "type": "address"
        }
      ],
      "stateMutability": "view",
      "type": "function",
      "constant": true
    },
    {
      "inputs": [
        {
          "internalType": "uint256",
          "name": "tokenId",
          "type": "uint256"
        }
      ],
      "name": "tokenURI",
      "outputs": [
        {
          "internalType": "string",
          "name": "",
          "type": "string"
        }
      ],
      "stateMutability": "view",
      "type": "function",
      "constant": true
    },
    {
      "inputs": [
        {
          "internalType": "address",
          "name": "from",
          "type": "address"
        },
        {
          "internalType": "address",
          "name": "to",
          "type": "address"
        },
        {
          "internalType": "uint256",
          "name": "tokenId",
          "type": "uint256"
        }
      ],
      "name": "transferFrom",
      "outputs": [],
      "stateMutability": "nonpayable",
      "type": "function"
    },
    {
      "inputs": [
        {
          "internalType": "address",
          "name": "wallet",
          "type": "address"
        },
        {
          "internalType": "string",
          "name": "kycData",
          "type": "string"
        }
      ],
      "name": "Signup",
      "outputs": [],
      "stateMutability": "nonpayable",
      "type": "function"
    },
    {
      "inputs": [
        {
          "internalType": "address",
          "name": "add",
          "type": "address"
        }
      ],
      "name": "whiteList",
      "outputs": [],
      "stateMutability": "nonpayable",
      "type": "function"
    },
    {
      "inputs": [
        {
          "internalType": "uint256",
          "name": "id",
          "type": "uint256"
        },
        {
          "internalType": "uint256",
          "name": "bid",
          "type": "uint256"
        },
        {
          "internalType": "address",
          "name": "wallet",
          "type": "address"
        }
      ],
      "name": "request",
      "outputs": [],
      "stateMutability": "nonpayable",
      "type": "function"
    },
    {
      "inputs": [
        {
          "internalType": "address",
          "name": "to",
          "type": "address"
        },
        {
          "internalType": "uint256",
          "name": "tokenId",
          "type": "uint256"
        }
      ],
      "name": "approve",
      "outputs": [],
      "stateMutability": "nonpayable",
      "type": "function"
    },
    {
      "inputs": [
        {
          "internalType": "uint256",
          "name": "reqId",
          "type": "uint256"
        },
        {
          "internalType": "address",
          "name": "approvedOwner",
          "type": "address"
        }
      ],
      "name": "approve",
      "outputs": [],
      "stateMutability": "nonpayable",
      "type": "function"
    },
    {
      "inputs": [
        {
          "internalType": "uint256",
          "name": "id",
          "type": "uint256"
        },
        {
          "internalType": "address",
          "name": "receiver",
          "type": "address"
        }
      ],
      "name": "transferLand",
      "outputs": [],
      "stateMutability": "nonpayable",
      "type": "function"
    },
    {
      "inputs": [
        {
          "internalType": "uint256",
          "name": "id",
          "type": "uint256"
        },
        {
          "internalType": "uint256",
          "name": "price",
          "type": "uint256"
        }
      ],
      "name": "buy",
      "outputs": [],
      "stateMutability": "nonpayable",
      "type": "function"
    },
    {
      "inputs": [
        {
          "internalType": "uint256",
          "name": "id",
          "type": "uint256"
        },
        {
          "internalType": "string",
          "name": "name",
          "type": "string"
        },
        {
          "internalType": "address",
          "name": "CurrentOwner",
          "type": "address"
        },
        {
          "internalType": "address",
          "name": "token",
          "type": "address"
        },
        {
          "internalType": "uint256",
          "name": "currPrice",
          "type": "uint256"
        },
        {
          "internalType": "string",
          "name": "metadata",
          "type": "string"
        }
      ],
      "name": "addLand",
      "outputs": [],
      "stateMutability": "nonpayable",
      "type": "function"
    }
  ],
  "bytecode": "0x608060405260006009556000600b553480156200001b57600080fd5b5060405162004aa838038062004aa88339818101604052810190620000419190620001c6565b6040518060400160405280600c81526020017f54657272614c616e644e465400000000000000000000000000000000000000008152506040518060400160405280600581526020017f544c4e46540000000000000000000000000000000000000000000000000000008152508160009081620000be919062000472565b508060019081620000d0919062000472565b50505080600760006101000a81548173ffffffffffffffffffffffffffffffffffffffff021916908373ffffffffffffffffffffffffffffffffffffffff16021790555033600860006101000a81548173ffffffffffffffffffffffffffffffffffffffff021916908373ffffffffffffffffffffffffffffffffffffffff1602179055505062000559565b600080fd5b600073ffffffffffffffffffffffffffffffffffffffff82169050919050565b60006200018e8262000161565b9050919050565b620001a08162000181565b8114620001ac57600080fd5b50565b600081519050620001c08162000195565b92915050565b600060208284031215620001df57620001de6200015c565b5b6000620001ef84828501620001af565b91505092915050565b600081519050919050565b7f4e487b7100000000000000000000000000000000000000000000000000000000600052604160045260246000fd5b7f4e487b7100000000000000000000000000000000000000000000000000000000600052602260045260246000fd5b600060028204905060018216806200027a57607f821691505b60208210810362000290576200028f62000232565b5b50919050565b60008190508160005260206000209050919050565b60006020601f8301049050919050565b600082821b905092915050565b600060088302620002fa7fffffffffffffffffffffffffffffffffffffffffffffffffffffffffffffffff82620002bb565b620003068683620002bb565b95508019841693508086168417925050509392505050565b6000819050919050565b6000819050919050565b6000620003536200034d62000347846200031e565b62000328565b6200031e565b9050919050565b6000819050919050565b6200036f8362000332565b620003876200037e826200035a565b848454620002c8565b825550505050565b600090565b6200039e6200038f565b620003ab81848462000364565b505050565b5b81811015620003d357620003c760008262000394565b600181019050620003b1565b5050565b601f8211156200042257620003ec8162000296565b620003f784620002ab565b8101602085101562000407578190505b6200041f6200041685620002ab565b830182620003b0565b50505b505050565b600082821c905092915050565b6000620004476000198460080262000427565b1980831691505092915050565b600062000462838362000434565b9150826002028217905092915050565b6200047d82620001f8565b67ffffffffffffffff81111562000499576200049862000203565b5b620004a5825462000261565b620004b2828285620003d7565b600060209050601f831160018114620004ea5760008415620004d5578287015190505b620004e1858262000454565b86555062000551565b601f198416620004fa8662000296565b60005b828110156200052457848901518255600182019150602085019450602081019050620004fd565b8683101562000544578489015162000540601f89168262000434565b8355505b6001600288020188555050505b505050505050565b61453f80620005696000396000f3fe608060405234801561001057600080fd5b50600436106101c45760003560e01c80636352211e116100f9578063b88d4fde11610097578063d21220a711610071578063d21220a714610530578063d6febde81461054e578063e985e9c51461056a578063febe49091461059a576101c4565b8063b88d4fde146104c8578063c798ff7d146104e4578063c87b56dd14610500576101c4565b806378b968ea116100d357806378b968ea146104415780638038b9991461045d57806395d89b411461048e578063a22cb465146104ac576101c4565b80636352211e146103c55780636ba4893f146103f557806370a0823114610411576101c4565b806329575f6a1161016657806341697be01161014057806341697be01461033757806342842e0e1461036d5780634eeca076146103895780635297408a146103a7576101c4565b806329575f6a146102e15780633024f02a146102ff578063372c12b11461031b576101c4565b8063095ea7b3116101a2578063095ea7b3146102475780630c8318b61461026357806323b872dd146102955780632464cfde146102b1576101c4565b806301ffc9a7146101c957806306fdde03146101f9578063081812fc14610217575b600080fd5b6101e360048036038101906101de9190612cd7565b6105b6565b6040516101f09190612d1f565b60405180910390f35b610201610698565b60405161020e9190612dca565b60405180910390f35b610231600480360381019061022c9190612e22565b61072a565b60405161023e9190612e90565b60405180910390f35b610261600480360381019061025c9190612ed7565b610770565b005b61027d60048036038101906102789190612e22565b610887565b60405161028c93929190612f26565b60405180910390f35b6102af60048036038101906102aa9190612f5d565b6108be565b005b6102cb60048036038101906102c69190612fb0565b61091e565b6040516102d89190612d1f565b60405180910390f35b6102e961093e565b6040516102f69190612e90565b60405180910390f35b61031960048036038101906103149190612fdd565b610964565b005b61033560048036038101906103309190612fb0565b610aab565b005b610351600480360381019061034c9190612e22565b610b96565b60405161036497969594939291906130a7565b60405180910390f35b61038760048036038101906103829190612f5d565b610d35565b005b610391610d55565b60405161039e9190613124565b60405180910390f35b6103af610d5b565b6040516103bc9190613124565b60405180910390f35b6103df60048036038101906103da9190612e22565b610d61565b6040516103ec9190612e90565b60405180910390f35b61040f600480360381019061040a9190613274565b610de7565b005b61042b60048036038101906104269190612fb0565b6111d3565b6040516104389190613124565b60405180910390f35b61045b60048036038101906104569190613339565b61128a565b005b61047760048036038101906104729190612fb0565b6113b2565b604051610485929190613395565b60405180910390f35b61049661147e565b6040516104a39190612dca565b60405180910390f35b6104c660048036038101906104c191906133f1565b611510565b005b6104e260048036038101906104dd91906134d2565b611526565b005b6104fe60048036038101906104f99190613555565b611588565b005b61051a60048036038101906105159190612e22565b61173d565b6040516105279190612dca565b60405180910390f35b61053861184f565b60405161054591906135f4565b60405180910390f35b6105686004803603810190610563919061360f565b611875565b005b610584600480360381019061057f919061364f565b611a4f565b6040516105919190612d1f565b60405180910390f35b6105b460048036038101906105af9190613555565b611ae3565b005b60007f80ac58cd000000000000000000000000000000000000000000000000000000007bffffffffffffffffffffffffffffffffffffffffffffffffffffffff1916827bffffffffffffffffffffffffffffffffffffffffffffffffffffffff1916148061068157507f5b5e139f000000000000000000000000000000000000000000000000000000007bffffffffffffffffffffffffffffffffffffffffffffffffffffffff1916827bffffffffffffffffffffffffffffffffffffffffffffffffffffffff1916145b80610691575061069082611c69565b5b9050919050565b6060600080546106a7906136be565b80601f01602080910402602001604051908101604052809291908181526020018280546106d3906136be565b80156107205780601f106106f557610100808354040283529160200191610720565b820191906000526020600020905b81548152906001019060200180831161070357829003601f168201915b5050505050905090565b600061073582611cd3565b6004600083815260200190815260200160002060009054906101000a900473ffffffffffffffffffffffffffffffffffffffff169050919050565b600061077b82610d61565b90508073ffffffffffffffffffffffffffffffffffffffff168373ffffffffffffffffffffffffffffffffffffffff16036107eb576040517f08c379a00000000000000000000000000000000000000000000000000000000081526004016107e290613761565b60405180910390fd5b8073ffffffffffffffffffffffffffffffffffffffff1661080a611d1e565b73ffffffffffffffffffffffffffffffffffffffff161480610839575061083881610833611d1e565b611a4f565b5b610878576040517f08c379a000000000000000000000000000000000000000000000000000000000815260040161086f906137f3565b60405180910390fd5b6108828383611d26565b505050565b600e6020528060005260406000206000915090508060000154908060010154908060020160009054906101000a900460ff16905083565b6108cf6108c9611d1e565b82611ddf565b61090e576040517f08c379a000000000000000000000000000000000000000000000000000000000815260040161090590613885565b60405180910390fd5b610919838383611e74565b505050565b600a6020528060005260406000206000915054906101000a900460ff1681565b600860009054906101000a900473ffffffffffffffffffffffffffffffffffffffff1681565b600d60008273ffffffffffffffffffffffffffffffffffffffff1673ffffffffffffffffffffffffffffffffffffffff1681526020019081526020016000206000018390806001815401808255809150506001900390600052602060002001600090919091909150556109d5612a93565b80600e60006009548152602001908152602001600020600082015181600001556020820151816001015560408201518160020160006101000a81548160ff0219169083151502179055509050506001600e6000600954815260200190815260200160002060020160006101000a81548160ff02191690831515021790555082600e600060095481526020019081526020016000206001018190555083600e600060095481526020019081526020016000206000018190555060096000815480929190610aa0906138d4565b919050555050505050565b600860009054906101000a900473ffffffffffffffffffffffffffffffffffffffff1673ffffffffffffffffffffffffffffffffffffffff163373ffffffffffffffffffffffffffffffffffffffff1614610b3b576040517f08c379a0000000000000000000000000000000000000000000000000000000008152600401610b3290613968565b60405180910390fd5b6001600a60008373ffffffffffffffffffffffffffffffffffffffff1673ffffffffffffffffffffffffffffffffffffffff16815260200190815260200160002060006101000a81548160ff02191690831515021790555050565b600c602052806000526040600020600091509050806000015490806001018054610bbf906136be565b80601f0160208091040260200160405190810160405280929190818152602001828054610beb906136be565b8015610c385780601f10610c0d57610100808354040283529160200191610c38565b820191906000526020600020905b815481529060010190602001808311610c1b57829003601f168201915b5050505050908060020160009054906101000a900473ffffffffffffffffffffffffffffffffffffffff1690806003018054610c73906136be565b80601f0160208091040260200160405190810160405280929190818152602001828054610c9f906136be565b8015610cec5780601f10610cc157610100808354040283529160200191610cec565b820191906000526020600020905b815481529060010190602001808311610ccf57829003601f168201915b5050505050908060040160009054906101000a900473ffffffffffffffffffffffffffffffffffffffff16908060050154908060060160009054906101000a900460ff16905087565b610d5083838360405180602001604052806000815250611526565b505050565b600b5481565b60095481565b600080610d6d8361216d565b9050600073ffffffffffffffffffffffffffffffffffffffff168173ffffffffffffffffffffffffffffffffffffffff1603610dde576040517f08c379a0000000000000000000000000000000000000000000000000000000008152600401610dd5906139d4565b60405180910390fd5b80915050919050565b60011515600a60003373ffffffffffffffffffffffffffffffffffffffff1673ffffffffffffffffffffffffffffffffffffffff16815260200190815260200160002060009054906101000a900460ff16151514610e7a576040517f08c379a0000000000000000000000000000000000000000000000000000000008152600401610e7190613a40565b60405180910390fd5b610e82612ab6565b8681600001818152505085816020018190525084816040019073ffffffffffffffffffffffffffffffffffffffff16908173ffffffffffffffffffffffffffffffffffffffff168152505083816080019073ffffffffffffffffffffffffffffffffffffffff16908173ffffffffffffffffffffffffffffffffffffffff1681525050828160a001818152505081816060018190525080600c6000898152602001908152602001600020600082015181600001556020820151816001019081610f4b9190613c02565b5060408201518160020160006101000a81548173ffffffffffffffffffffffffffffffffffffffff021916908373ffffffffffffffffffffffffffffffffffffffff1602179055506060820151816003019081610fa89190613c02565b5060808201518160040160006101000a81548173ffffffffffffffffffffffffffffffffffffffff021916908373ffffffffffffffffffffffffffffffffffffffff16021790555060a0820151816005015560c08201518160060160006101000a81548160ff0219169083600381111561102557611024613030565b5b021790555060e0820151816007019080519060200190611046929190612b39565b509050506001600c600089815260200190815260200160002060060160006101000a81548160ff0219169083600381111561108457611083613030565b5b0217905550600c6000888152602001908152602001600020600701859080600181540180825580915050600190039060005260206000200160009091909190916101000a81548173ffffffffffffffffffffffffffffffffffffffff021916908373ffffffffffffffffffffffffffffffffffffffff16021790555061110a85886121aa565b6111b287600c60008a8152602001908152602001600020600301805461112f906136be565b80601f016020809104026020016040519081016040528092919081815260200182805461115b906136be565b80156111a85780601f1061117d576101008083540402835291602001916111a8565b820191906000526020600020905b81548152906001019060200180831161118b57829003601f168201915b50505050506123c7565b600b60008154809291906111c5906138d4565b919050555050505050505050565b60008073ffffffffffffffffffffffffffffffffffffffff168273ffffffffffffffffffffffffffffffffffffffff1603611243576040517f08c379a000000000000000000000000000000000000000000000000000000000815260040161123a90613d46565b60405180910390fd5b600360008373ffffffffffffffffffffffffffffffffffffffff1673ffffffffffffffffffffffffffffffffffffffff168152602001908152602001600020549050919050565b611292612bc3565b82816040019073ffffffffffffffffffffffffffffffffffffffff16908173ffffffffffffffffffffffffffffffffffffffff168152505081816060018190525080600d60008573ffffffffffffffffffffffffffffffffffffffff1673ffffffffffffffffffffffffffffffffffffffff168152602001908152602001600020600082015181600001908051906020019061132f929190612c01565b50602082015181600101908051906020019061134c929190612c01565b5060408201518160020160006101000a81548173ffffffffffffffffffffffffffffffffffffffff021916908373ffffffffffffffffffffffffffffffffffffffff16021790555060608201518160030190816113a99190613c02565b50905050505050565b600d6020528060005260406000206000915090508060020160009054906101000a900473ffffffffffffffffffffffffffffffffffffffff16908060030180546113fb906136be565b80601f0160208091040260200160405190810160405280929190818152602001828054611427906136be565b80156114745780601f1061144957610100808354040283529160200191611474565b820191906000526020600020905b81548152906001019060200180831161145757829003601f168201915b5050505050905082565b60606001805461148d906136be565b80601f01602080910402602001604051908101604052809291908181526020018280546114b9906136be565b80156115065780601f106114db57610100808354040283529160200191611506565b820191906000526020600020905b8154815290600101906020018083116114e957829003601f168201915b5050505050905090565b61152261151b611d1e565b8383612434565b5050565b611537611531611d1e565b83611ddf565b611576576040517f08c379a000000000000000000000000000000000000000000000000000000000815260040161156d90613885565b60405180910390fd5b611582848484846125a0565b50505050565b600c600083815260200190815260200160002060020160009054906101000a900473ffffffffffffffffffffffffffffffffffffffff1673ffffffffffffffffffffffffffffffffffffffff163373ffffffffffffffffffffffffffffffffffffffff161461162c576040517f08c379a000000000000000000000000000000000000000000000000000000000815260040161162390613db2565b60405180910390fd5b600c6000838152602001908152602001600020600701819080600181540180825580915050600190039060005260206000200160009091909190916101000a81548173ffffffffffffffffffffffffffffffffffffffff021916908373ffffffffffffffffffffffffffffffffffffffff16021790555080600c600084815260200190815260200160002060020160006101000a81548173ffffffffffffffffffffffffffffffffffffffff021916908373ffffffffffffffffffffffffffffffffffffffff160217905550611739600c600084815260200190815260200160002060020160009054906101000a900473ffffffffffffffffffffffffffffffffffffffff168284610d35565b5050565b606061174882611cd3565b6000600660008481526020019081526020016000208054611768906136be565b80601f0160208091040260200160405190810160405280929190818152602001828054611794906136be565b80156117e15780601f106117b6576101008083540402835291602001916117e1565b820191906000526020600020905b8154815290600101906020018083116117c457829003601f168201915b5050505050905060006117f26125fc565b9050600081510361180757819250505061184a565b60008251111561183c578082604051602001611824929190613e0e565b6040516020818303038152906040529250505061184a565b61184584612613565b925050505b919050565b600760009054906101000a900473ffffffffffffffffffffffffffffffffffffffff1681565b600c600083815260200190815260200160002060020160009054906101000a900473ffffffffffffffffffffffffffffffffffffffff1673ffffffffffffffffffffffffffffffffffffffff163373ffffffffffffffffffffffffffffffffffffffff1614611919576040517f08c379a000000000000000000000000000000000000000000000000000000000815260040161191090613a40565b60405180910390fd5b6000600c600084815260200190815260200160002060060160006101000a81548160ff0219169083600381111561195357611952613030565b5b0217905550600060129050600081600a61196d9190613f65565b836119789190613fb0565b9050600760009054906101000a900473ffffffffffffffffffffffffffffffffffffffff1673ffffffffffffffffffffffffffffffffffffffff166323b872dd33600860009054906101000a900473ffffffffffffffffffffffffffffffffffffffff16846040518463ffffffff1660e01b81526004016119fb93929190613ff2565b6020604051808303816000875af1158015611a1a573d6000803e3d6000fd5b505050506040513d601f19601f82011682018060405250810190611a3e919061403e565b50611a498433611588565b50505050565b6000600560008473ffffffffffffffffffffffffffffffffffffffff1673ffffffffffffffffffffffffffffffffffffffff16815260200190815260200160002060008373ffffffffffffffffffffffffffffffffffffffff1673ffffffffffffffffffffffffffffffffffffffff16815260200190815260200160002060009054906101000a900460ff16905092915050565b60011515600a60003373ffffffffffffffffffffffffffffffffffffffff1673ffffffffffffffffffffffffffffffffffffffff16815260200190815260200160002060009054906101000a900460ff16151514611b76576040517f08c379a0000000000000000000000000000000000000000000000000000000008152600401611b6d90613a40565b60405180910390fd5b80600c6000600e600086815260200190815260200160002060000154815260200190815260200160002060020160006101000a81548173ffffffffffffffffffffffffffffffffffffffff021916908373ffffffffffffffffffffffffffffffffffffffff1602179055506002600c6000600e600086815260200190815260200160002060000154815260200190815260200160002060060160006101000a81548160ff02191690836003811115611c3157611c30613030565b5b02179055506000600e600084815260200190815260200160002060020160006101000a81548160ff0219169083151502179055505050565b60007f01ffc9a7000000000000000000000000000000000000000000000000000000007bffffffffffffffffffffffffffffffffffffffffffffffffffffffff1916827bffffffffffffffffffffffffffffffffffffffffffffffffffffffff1916149050919050565b611cdc8161267b565b611d1b576040517f08c379a0000000000000000000000000000000000000000000000000000000008152600401611d12906139d4565b60405180910390fd5b50565b600033905090565b816004600083815260200190815260200160002060006101000a81548173ffffffffffffffffffffffffffffffffffffffff021916908373ffffffffffffffffffffffffffffffffffffffff160217905550808273ffffffffffffffffffffffffffffffffffffffff16611d9983610d61565b73ffffffffffffffffffffffffffffffffffffffff167f8c5be1e5ebec7d5bd14f71427d1e84f3dd0314c0f7b2291e5b200ac8c7c3b92560405160405180910390a45050565b600080611deb83610d61565b90508073ffffffffffffffffffffffffffffffffffffffff168473ffffffffffffffffffffffffffffffffffffffff161480611e2d5750611e2c8185611a4f565b5b80611e6b57508373ffffffffffffffffffffffffffffffffffffffff16611e538461072a565b73ffffffffffffffffffffffffffffffffffffffff16145b91505092915050565b8273ffffffffffffffffffffffffffffffffffffffff16611e9482610d61565b73ffffffffffffffffffffffffffffffffffffffff1614611eea576040517f08c379a0000000000000000000000000000000000000000000000000000000008152600401611ee1906140dd565b60405180910390fd5b600073ffffffffffffffffffffffffffffffffffffffff168273ffffffffffffffffffffffffffffffffffffffff1603611f59576040517f08c379a0000000000000000000000000000000000000000000000000000000008152600401611f509061416f565b60405180910390fd5b611f6683838360016126bc565b8273ffffffffffffffffffffffffffffffffffffffff16611f8682610d61565b73ffffffffffffffffffffffffffffffffffffffff1614611fdc576040517f08c379a0000000000000000000000000000000000000000000000000000000008152600401611fd3906140dd565b60405180910390fd5b6004600082815260200190815260200160002060006101000a81549073ffffffffffffffffffffffffffffffffffffffff02191690556001600360008573ffffffffffffffffffffffffffffffffffffffff1673ffffffffffffffffffffffffffffffffffffffff168152602001908152602001600020600082825403925050819055506001600360008473ffffffffffffffffffffffffffffffffffffffff1673ffffffffffffffffffffffffffffffffffffffff16815260200190815260200160002060008282540192505081905550816002600083815260200190815260200160002060006101000a81548173ffffffffffffffffffffffffffffffffffffffff021916908373ffffffffffffffffffffffffffffffffffffffff160217905550808273ffffffffffffffffffffffffffffffffffffffff168473ffffffffffffffffffffffffffffffffffffffff167fddf252ad1be2c89b69c2b068fc378daa952ba7f163c4a11628f55a4df523b3ef60405160405180910390a461216883838360016126c2565b505050565b60006002600083815260200190815260200160002060009054906101000a900473ffffffffffffffffffffffffffffffffffffffff169050919050565b600073ffffffffffffffffffffffffffffffffffffffff168273ffffffffffffffffffffffffffffffffffffffff1603612219576040517f08c379a0000000000000000000000000000000000000000000000000000000008152600401612210906141db565b60405180910390fd5b6122228161267b565b15612262576040517f08c379a000000000000000000000000000000000000000000000000000000000815260040161225990614247565b60405180910390fd5b6122706000838360016126bc565b6122798161267b565b156122b9576040517f08c379a00000000000000000000000000000000000000000000000000000000081526004016122b090614247565b60405180910390fd5b6001600360008473ffffffffffffffffffffffffffffffffffffffff1673ffffffffffffffffffffffffffffffffffffffff16815260200190815260200160002060008282540192505081905550816002600083815260200190815260200160002060006101000a81548173ffffffffffffffffffffffffffffffffffffffff021916908373ffffffffffffffffffffffffffffffffffffffff160217905550808273ffffffffffffffffffffffffffffffffffffffff16600073ffffffffffffffffffffffffffffffffffffffff167fddf252ad1be2c89b69c2b068fc378daa952ba7f163c4a11628f55a4df523b3ef60405160405180910390a46123c36000838360016126c2565b5050565b6123d08261267b565b61240f576040517f08c379a0000000000000000000000000000000000000000000000000000000008152600401612406906142d9565b60405180910390fd5b8060066000848152602001908152602001600020908161242f9190613c02565b505050565b8173ffffffffffffffffffffffffffffffffffffffff168373ffffffffffffffffffffffffffffffffffffffff16036124a2576040517f08c379a000000000000000000000000000000000000000000000000000000000815260040161249990614345565b60405180910390fd5b80600560008573ffffffffffffffffffffffffffffffffffffffff1673ffffffffffffffffffffffffffffffffffffffff16815260200190815260200160002060008473ffffffffffffffffffffffffffffffffffffffff1673ffffffffffffffffffffffffffffffffffffffff16815260200190815260200160002060006101000a81548160ff0219169083151502179055508173ffffffffffffffffffffffffffffffffffffffff168373ffffffffffffffffffffffffffffffffffffffff167f17307eab39ab6107e8899845ad3d59bd9653f200f220920489ca2b5937696c31836040516125939190612d1f565b60405180910390a3505050565b6125ab848484611e74565b6125b7848484846126c8565b6125f6576040517f08c379a00000000000000000000000000000000000000000000000000000000081526004016125ed906143d7565b60405180910390fd5b50505050565b606060405180602001604052806000815250905090565b606061261e82611cd3565b60006126286125fc565b905060008151116126485760405180602001604052806000815250612673565b806126528461284f565b604051602001612663929190613e0e565b6040516020818303038152906040525b915050919050565b60008073ffffffffffffffffffffffffffffffffffffffff1661269d8361216d565b73ffffffffffffffffffffffffffffffffffffffff1614159050919050565b50505050565b50505050565b60006126e98473ffffffffffffffffffffffffffffffffffffffff1661291d565b15612842578373ffffffffffffffffffffffffffffffffffffffff1663150b7a02612712611d1e565b8786866040518563ffffffff1660e01b8152600401612734949392919061444c565b6020604051808303816000875af192505050801561277057506040513d601f19601f8201168201806040525081019061276d91906144ad565b60015b6127f2573d80600081146127a0576040519150601f19603f3d011682016040523d82523d6000602084013e6127a5565b606091505b5060008151036127ea576040517f08c379a00000000000000000000000000000000000000000000000000000000081526004016127e1906143d7565b60405180910390fd5b805181602001fd5b63150b7a0260e01b7bffffffffffffffffffffffffffffffffffffffffffffffffffffffff1916817bffffffffffffffffffffffffffffffffffffffffffffffffffffffff191614915050612847565b600190505b949350505050565b60606000600161285e84612940565b01905060008167ffffffffffffffff81111561287d5761287c613149565b5b6040519080825280601f01601f1916602001820160405280156128af5781602001600182028036833780820191505090505b509050600082602001820190505b600115612912578080600190039150507f3031323334353637383961626364656600000000000000000000000000000000600a86061a8153600a8581612906576129056144da565b5b049450600085036128bd575b819350505050919050565b6000808273ffffffffffffffffffffffffffffffffffffffff163b119050919050565b600080600090507a184f03e93ff9f4daa797ed6e38ed64bf6a1f010000000000000000831061299e577a184f03e93ff9f4daa797ed6e38ed64bf6a1f0100000000000000008381612994576129936144da565b5b0492506040810190505b6d04ee2d6d415b85acef810000000083106129db576d04ee2d6d415b85acef810000000083816129d1576129d06144da565b5b0492506020810190505b662386f26fc100008310612a0a57662386f26fc100008381612a00576129ff6144da565b5b0492506010810190505b6305f5e1008310612a33576305f5e1008381612a2957612a286144da565b5b0492506008810190505b6127108310612a58576127108381612a4e57612a4d6144da565b5b0492506004810190505b60648310612a7b5760648381612a7157612a706144da565b5b0492506002810190505b600a8310612a8a576001810190505b80915050919050565b604051806060016040528060008152602001600081526020016000151581525090565b6040518061010001604052806000815260200160608152602001600073ffffffffffffffffffffffffffffffffffffffff16815260200160608152602001600073ffffffffffffffffffffffffffffffffffffffff1681526020016000815260200160006003811115612b2c57612b2b613030565b5b8152602001606081525090565b828054828255906000526020600020908101928215612bb2579160200282015b82811115612bb15782518260006101000a81548173ffffffffffffffffffffffffffffffffffffffff021916908373ffffffffffffffffffffffffffffffffffffffff16021790555091602001919060010190612b59565b5b509050612bbf9190612c4e565b5090565b60405180608001604052806060815260200160608152602001600073ffffffffffffffffffffffffffffffffffffffff168152602001606081525090565b828054828255906000526020600020908101928215612c3d579160200282015b82811115612c3c578251825591602001919060010190612c21565b5b509050612c4a9190612c4e565b5090565b5b80821115612c67576000816000905550600101612c4f565b5090565b6000604051905090565b600080fd5b600080fd5b60007fffffffff0000000000000000000000000000000000000000000000000000000082169050919050565b612cb481612c7f565b8114612cbf57600080fd5b50565b600081359050612cd181612cab565b92915050565b600060208284031215612ced57612cec612c75565b5b6000612cfb84828501612cc2565b91505092915050565b60008115159050919050565b612d1981612d04565b82525050565b6000602082019050612d346000830184612d10565b92915050565b600081519050919050565b600082825260208201905092915050565b60005b83811015612d74578082015181840152602081019050612d59565b60008484015250505050565b6000601f19601f8301169050919050565b6000612d9c82612d3a565b612da68185612d45565b9350612db6818560208601612d56565b612dbf81612d80565b840191505092915050565b60006020820190508181036000830152612de48184612d91565b905092915050565b6000819050919050565b612dff81612dec565b8114612e0a57600080fd5b50565b600081359050612e1c81612df6565b92915050565b600060208284031215612e3857612e37612c75565b5b6000612e4684828501612e0d565b91505092915050565b600073ffffffffffffffffffffffffffffffffffffffff82169050919050565b6000612e7a82612e4f565b9050919050565b612e8a81612e6f565b82525050565b6000602082019050612ea56000830184612e81565b92915050565b612eb481612e6f565b8114612ebf57600080fd5b50565b600081359050612ed181612eab565b92915050565b60008060408385031215612eee57612eed612c75565b5b6000612efc85828601612ec2565b9250506020612f0d85828601612e0d565b9150509250929050565b612f2081612dec565b82525050565b6000606082019050612f3b6000830186612f17565b612f486020830185612f17565b612f556040830184612d10565b949350505050565b600080600060608486031215612f7657612f75612c75565b5b6000612f8486828701612ec2565b9350506020612f9586828701612ec2565b9250506040612fa686828701612e0d565b9150509250925092565b600060208284031215612fc657612fc5612c75565b5b6000612fd484828501612ec2565b91505092915050565b600080600060608486031215612ff657612ff5612c75565b5b600061300486828701612e0d565b935050602061301586828701612e0d565b925050604061302686828701612ec2565b9150509250925092565b7f4e487b7100000000000000000000000000000000000000000000000000000000600052602160045260246000fd5b600481106130705761306f613030565b5b50565b60008190506130818261305f565b919050565b600061309182613073565b9050919050565b6130a181613086565b82525050565b600060e0820190506130bc600083018a612f17565b81810360208301526130ce8189612d91565b90506130dd6040830188612e81565b81810360608301526130ef8187612d91565b90506130fe6080830186612e81565b61310b60a0830185612f17565b61311860c0830184613098565b98975050505050505050565b60006020820190506131396000830184612f17565b92915050565b600080fd5b600080fd5b7f4e487b7100000000000000000000000000000000000000000000000000000000600052604160045260246000fd5b61318182612d80565b810181811067ffffffffffffffff821117156131a05761319f613149565b5b80604052505050565b60006131b3612c6b565b90506131bf8282613178565b919050565b600067ffffffffffffffff8211156131df576131de613149565b5b6131e882612d80565b9050602081019050919050565b82818337600083830152505050565b6000613217613212846131c4565b6131a9565b90508281526020810184848401111561323357613232613144565b5b61323e8482856131f5565b509392505050565b600082601f83011261325b5761325a61313f565b5b813561326b848260208601613204565b91505092915050565b60008060008060008060c0878903121561329157613290612c75565b5b600061329f89828a01612e0d565b965050602087013567ffffffffffffffff8111156132c0576132bf612c7a565b5b6132cc89828a01613246565b95505060406132dd89828a01612ec2565b94505060606132ee89828a01612ec2565b93505060806132ff89828a01612e0d565b92505060a087013567ffffffffffffffff8111156133205761331f612c7a565b5b61332c89828a01613246565b9150509295509295509295565b600080604083850312156133505761334f612c75565b5b600061335e85828601612ec2565b925050602083013567ffffffffffffffff81111561337f5761337e612c7a565b5b61338b85828601613246565b9150509250929050565b60006040820190506133aa6000830185612e81565b81810360208301526133bc8184612d91565b90509392505050565b6133ce81612d04565b81146133d957600080fd5b50565b6000813590506133eb816133c5565b92915050565b6000806040838503121561340857613407612c75565b5b600061341685828601612ec2565b9250506020613427858286016133dc565b9150509250929050565b600067ffffffffffffffff82111561344c5761344b613149565b5b61345582612d80565b9050602081019050919050565b600061347561347084613431565b6131a9565b90508281526020810184848401111561349157613490613144565b5b61349c8482856131f5565b509392505050565b600082601f8301126134b9576134b861313f565b5b81356134c9848260208601613462565b91505092915050565b600080600080608085870312156134ec576134eb612c75565b5b60006134fa87828801612ec2565b945050602061350b87828801612ec2565b935050604061351c87828801612e0d565b925050606085013567ffffffffffffffff81111561353d5761353c612c7a565b5b613549878288016134a4565b91505092959194509250565b6000806040838503121561356c5761356b612c75565b5b600061357a85828601612e0d565b925050602061358b85828601612ec2565b9150509250929050565b6000819050919050565b60006135ba6135b56135b084612e4f565b613595565b612e4f565b9050919050565b60006135cc8261359f565b9050919050565b60006135de826135c1565b9050919050565b6135ee816135d3565b82525050565b600060208201905061360960008301846135e5565b92915050565b6000806040838503121561362657613625612c75565b5b600061363485828601612e0d565b925050602061364585828601612e0d565b9150509250929050565b6000806040838503121561366657613665612c75565b5b600061367485828601612ec2565b925050602061368585828601612ec2565b9150509250929050565b7f4e487b7100000000000000000000000000000000000000000000000000000000600052602260045260246000fd5b600060028204905060018216806136d657607f821691505b6020821081036136e9576136e861368f565b5b50919050565b7f4552433732313a20617070726f76616c20746f2063757272656e74206f776e6560008201527f7200000000000000000000000000000000000000000000000000000000000000602082015250565b600061374b602183612d45565b9150613756826136ef565b604082019050919050565b6000602082019050818103600083015261377a8161373e565b9050919050565b7f4552433732313a20617070726f76652063616c6c6572206973206e6f7420746f60008201527f6b656e206f776e6572206f7220617070726f76656420666f7220616c6c000000602082015250565b60006137dd603d83612d45565b91506137e882613781565b604082019050919050565b6000602082019050818103600083015261380c816137d0565b9050919050565b7f4552433732313a2063616c6c6572206973206e6f7420746f6b656e206f776e6560008201527f72206f7220617070726f76656400000000000000000000000000000000000000602082015250565b600061386f602d83612d45565b915061387a82613813565b604082019050919050565b6000602082019050818103600083015261389e81613862565b9050919050565b7f4e487b7100000000000000000000000000000000000000000000000000000000600052601160045260246000fd5b60006138df82612dec565b91507fffffffffffffffffffffffffffffffffffffffffffffffffffffffffffffffff8203613911576139106138a5565b5b600182019050919050565b7f596f7520617265206e6f7420617574686f726973656400000000000000000000600082015250565b6000613952601683612d45565b915061395d8261391c565b602082019050919050565b6000602082019050818103600083015261398181613945565b9050919050565b7f4552433732313a20696e76616c696420746f6b656e2049440000000000000000600082015250565b60006139be601883612d45565b91506139c982613988565b602082019050919050565b600060208201905081810360008301526139ed816139b1565b9050919050565b7f536f72727920596f7520617265206e6f7420417574686f726973656400000000600082015250565b6000613a2a601c83612d45565b9150613a35826139f4565b602082019050919050565b60006020820190508181036000830152613a5981613a1d565b9050919050565b60008190508160005260206000209050919050565b60006020601f8301049050919050565b600082821b905092915050565b600060088302613ac27fffffffffffffffffffffffffffffffffffffffffffffffffffffffffffffffff82613a85565b613acc8683613a85565b95508019841693508086168417925050509392505050565b6000613aff613afa613af584612dec565b613595565b612dec565b9050919050565b6000819050919050565b613b1983613ae4565b613b2d613b2582613b06565b848454613a92565b825550505050565b600090565b613b42613b35565b613b4d818484613b10565b505050565b5b81811015613b7157613b66600082613b3a565b600181019050613b53565b5050565b601f821115613bb657613b8781613a60565b613b9084613a75565b81016020851015613b9f578190505b613bb3613bab85613a75565b830182613b52565b50505b505050565b600082821c905092915050565b6000613bd960001984600802613bbb565b1980831691505092915050565b6000613bf28383613bc8565b9150826002028217905092915050565b613c0b82612d3a565b67ffffffffffffffff811115613c2457613c23613149565b5b613c2e82546136be565b613c39828285613b75565b600060209050601f831160018114613c6c5760008415613c5a578287015190505b613c648582613be6565b865550613ccc565b601f198416613c7a86613a60565b60005b82811015613ca257848901518255600182019150602085019450602081019050613c7d565b86831015613cbf5784890151613cbb601f891682613bc8565b8355505b6001600288020188555050505b505050505050565b7f4552433732313a2061646472657373207a65726f206973206e6f74206120766160008201527f6c6964206f776e65720000000000000000000000000000000000000000000000602082015250565b6000613d30602983612d45565b9150613d3b82613cd4565b604082019050919050565b60006020820190508181036000830152613d5f81613d23565b9050919050565b7f4e6f7420746865204f776e657200000000000000000000000000000000000000600082015250565b6000613d9c600d83612d45565b9150613da782613d66565b602082019050919050565b60006020820190508181036000830152613dcb81613d8f565b9050919050565b600081905092915050565b6000613de882612d3a565b613df28185613dd2565b9350613e02818560208601612d56565b80840191505092915050565b6000613e1a8285613ddd565b9150613e268284613ddd565b91508190509392505050565b60008160011c9050919050565b6000808291508390505b6001851115613e8957808604811115613e6557613e646138a5565b5b6001851615613e745780820291505b8081029050613e8285613e32565b9450613e49565b94509492505050565b600082613ea25760019050613f5e565b81613eb05760009050613f5e565b8160018114613ec65760028114613ed057613eff565b6001915050613f5e565b60ff841115613ee257613ee16138a5565b5b8360020a915084821115613ef957613ef86138a5565b5b50613f5e565b5060208310610133831016604e8410600b8410161715613f345782820a905083811115613f2f57613f2e6138a5565b5b613f5e565b613f418484846001613e3f565b92509050818404811115613f5857613f576138a5565b5b81810290505b9392505050565b6000613f7082612dec565b9150613f7b83612dec565b9250613fa87fffffffffffffffffffffffffffffffffffffffffffffffffffffffffffffffff8484613e92565b905092915050565b6000613fbb82612dec565b9150613fc683612dec565b9250828202613fd481612dec565b91508282048414831517613feb57613fea6138a5565b5b5092915050565b60006060820190506140076000830186612e81565b6140146020830185612e81565b6140216040830184612f17565b949350505050565b600081519050614038816133c5565b92915050565b60006020828403121561405457614053612c75565b5b600061406284828501614029565b91505092915050565b7f4552433732313a207472616e736665722066726f6d20696e636f72726563742060008201527f6f776e6572000000000000000000000000000000000000000000000000000000602082015250565b60006140c7602583612d45565b91506140d28261406b565b604082019050919050565b600060208201905081810360008301526140f6816140ba565b9050919050565b7f4552433732313a207472616e7366657220746f20746865207a65726f2061646460008201527f7265737300000000000000000000000000000000000000000000000000000000602082015250565b6000614159602483612d45565b9150614164826140fd565b604082019050919050565b600060208201905081810360008301526141888161414c565b9050919050565b7f4552433732313a206d696e7420746f20746865207a65726f2061646472657373600082015250565b60006141c5602083612d45565b91506141d08261418f565b602082019050919050565b600060208201905081810360008301526141f4816141b8565b9050919050565b7f4552433732313a20746f6b656e20616c7265616479206d696e74656400000000600082015250565b6000614231601c83612d45565b915061423c826141fb565b602082019050919050565b6000602082019050818103600083015261426081614224565b9050919050565b7f45524337323155524953746f726167653a2055524920736574206f66206e6f6e60008201527f6578697374656e7420746f6b656e000000000000000000000000000000000000602082015250565b60006142c3602e83612d45565b91506142ce82614267565b604082019050919050565b600060208201905081810360008301526142f2816142b6565b9050919050565b7f4552433732313a20617070726f766520746f2063616c6c657200000000000000600082015250565b600061432f601983612d45565b915061433a826142f9565b602082019050919050565b6000602082019050818103600083015261435e81614322565b9050919050565b7f4552433732313a207472616e7366657220746f206e6f6e20455243373231526560008201527f63656976657220696d706c656d656e7465720000000000000000000000000000602082015250565b60006143c1603283612d45565b91506143cc82614365565b604082019050919050565b600060208201905081810360008301526143f0816143b4565b9050919050565b600081519050919050565b600082825260208201905092915050565b600061441e826143f7565b6144288185614402565b9350614438818560208601612d56565b61444181612d80565b840191505092915050565b60006080820190506144616000830187612e81565b61446e6020830186612e81565b61447b6040830185612f17565b818103606083015261448d8184614413565b905095945050505050565b6000815190506144a781612cab565b92915050565b6000602082840312156144c3576144c2612c75565b5b60006144d184828501614498565b91505092915050565b7f4e487b7100000000000000000000000000000000000000000000000000000000600052601260045260246000fdfea26469706673582212205e85fe11a695ad52877bf1ff92b359dfb85bcf9d0f3972888a57d6a8d4d11f2364736f6c63430008130033",
  "immutableReferences": {},
  "source": "// SPDX-License-Identifier: MIT\npragma solidity ^0.8.7;\nimport \"@openzeppelin/contracts/token/ERC721/extensions/ERC721URIStorage.sol\";\nimport \"@openzeppelin/contracts/token/ERC20/IERC20.sol\";\n\ncontract LandRegister is ERC721URIStorage{\n          IERC20 public token1;\n             address public superAdmin;\n\n    constructor(address token) ERC721(\"TerraLandNFT\", \"TLNFT\") {\n           token1 = IERC20(token);\n           superAdmin = msg.sender;\n    }\n\n \n    uint256 public reqCounter = 0;\n    mapping(address => bool) public AdminWhitelist;\n \n    struct buyer{\n        uint256[] request;\n        uint256[] lands;\n        address wallet; \n        string metadata;\n    }\n       struct requestLands{\n        uint256 LandId;\n        uint256 bid;\n        bool state;\n    }\n    enum Status {\n        sold,\n        onSale,\n        awaitingPayment,\n        reserved\n    }\n   \n    uint256 public Counter = 0;\n    struct Land {\n        uint256 id;\n        string name;\n        address CurrentOwner;\n        string metadata;\n        address token;\n        uint256 currPrice;\n        Status status;\n        address[] Owners;\n    }\n    mapping(uint256 => Land)public allLands;\n    mapping(address => buyer) public allBuyers;\n    mapping(uint256 => requestLands)public allrequests;\n   \n    function Signup(address wallet,string memory kycData) public{\n        buyer memory newBuyer;\n        newBuyer.wallet = wallet;\n        newBuyer.metadata = kycData;\n        allBuyers[wallet] = newBuyer;\n    }\n    function whiteList(address add) public{\n        require(msg.sender==superAdmin,\"You are not authorised\");\n        AdminWhitelist[add] = true;\n    }\n    function request(uint256 id,uint256 bid,address wallet) public{\n        allBuyers[wallet].request.push(id);\n        requestLands memory newLand;\n        allrequests[reqCounter] = newLand;\n        allrequests[reqCounter].state = true;\n        allrequests[reqCounter].bid = bid;\n        allrequests[reqCounter].LandId = id;\n        reqCounter ++;\n\n            \n    }\n    function approve(uint256 reqId,address approvedOwner) public{\n          require(\n            AdminWhitelist[msg.sender] == true,\n            \"Sorry You are not Authorised\"\n        );\n        allLands[allrequests[reqId].LandId].CurrentOwner = approvedOwner;\n        allLands[allrequests[reqId].LandId].status = Status.awaitingPayment;\n        allrequests[reqId].state = false;\n\n    }\n      function transferLand(uint256 id,address receiver)public{\n        require(msg.sender == allLands[id].CurrentOwner,\"Not the Owner\");\n        allLands[id].Owners.push(receiver);\n        allLands[id].CurrentOwner = receiver;\n        safeTransferFrom(allLands[id].CurrentOwner, receiver, id);\n\n    }\n    function buy(uint256 id,uint256 price)public{\n           require(\n            msg.sender == allLands[id].CurrentOwner ,\n            \"Sorry You are not Authorised\"\n        );\n        allLands[id].status = Status.sold;\n          uint256 decimals = 18;\n         uint256 finalPrice = price * 10 ** decimals;  \n        token1.transferFrom(msg.sender, superAdmin,finalPrice);\n        transferLand(id,msg.sender);\n    }\n\n\n    function addLand(\n        uint256 id,\n        string memory name,\n        address CurrentOwner,\n        address token,\n        uint256 currPrice,\n        string memory metadata\n    ) public  {\n        require(\n            AdminWhitelist[msg.sender] == true,\n            \"Sorry You are not Authorised\"\n        );\n\n        Land memory newLand;\n        newLand.id = id;\n        newLand.name = name;\n        newLand.CurrentOwner = CurrentOwner;\n        newLand.token = token;\n        newLand.currPrice = currPrice;\n        newLand.metadata = metadata;\n        allLands[id] = newLand;\n        allLands[id].status = Status.onSale;\n        allLands[id].Owners.push(CurrentOwner);\n         _mint(CurrentOwner,id);\n        _setTokenURI(id, allLands[id].metadata);\n\n        Counter++;\n        \n    }\n   \n  \n}\n\n",
  "sourcePath": "A:\\Sem-VI\\Distributed Systems\\Projects\\Land-Registry\\truffle\\contracts\\LandRegister.sol",
  "compiler": {
    "name": "solc",
    "version": "0.8.19+commit.7dd6d404.Emscripten.clang"
  },
  "schemaVersion": "3.4.8",
  "updatedAt": "2023-04-29T16:41:29.030Z",
  "networkType": "ethereum",
  "devdoc": {
    "events": {
      "Approval(address,address,uint256)": {
        "details": "Emitted when `owner` enables `approved` to manage the `tokenId` token."
      },
      "ApprovalForAll(address,address,bool)": {
        "details": "Emitted when `owner` enables or disables (`approved`) `operator` to manage all of its assets."
      },
      "Transfer(address,address,uint256)": {
        "details": "Emitted when `tokenId` token is transferred from `from` to `to`."
      }
    },
    "kind": "dev",
    "methods": {
      "approve(address,uint256)": {
        "details": "See {IERC721-approve}."
      },
      "balanceOf(address)": {
        "details": "See {IERC721-balanceOf}."
      },
      "getApproved(uint256)": {
        "details": "See {IERC721-getApproved}."
      },
      "isApprovedForAll(address,address)": {
        "details": "See {IERC721-isApprovedForAll}."
      },
      "name()": {
        "details": "See {IERC721Metadata-name}."
      },
      "ownerOf(uint256)": {
        "details": "See {IERC721-ownerOf}."
      },
      "safeTransferFrom(address,address,uint256)": {
        "details": "See {IERC721-safeTransferFrom}."
      },
      "safeTransferFrom(address,address,uint256,bytes)": {
        "details": "See {IERC721-safeTransferFrom}."
      },
      "setApprovalForAll(address,bool)": {
        "details": "See {IERC721-setApprovalForAll}."
      },
      "supportsInterface(bytes4)": {
        "details": "See {IERC165-supportsInterface}."
      },
      "symbol()": {
        "details": "See {IERC721Metadata-symbol}."
      },
      "tokenURI(uint256)": {
        "details": "See {IERC721Metadata-tokenURI}."
      },
      "transferFrom(address,address,uint256)": {
        "details": "See {IERC721-transferFrom}."
      }
    },
    "version": 1
  },
  "userdoc": {
    "kind": "user",
    "methods": {},
    "version": 1
  }
}