{
  "contractName": "LandRegister",
  "abi": [
    {
      "inputs": [
        {
          "internalType": "address",
          "name": "token",
          "type": "address"
        }
      ],
      "stateMutability": "nonpayable",
      "type": "constructor"
    },
    {
      "anonymous": false,
      "inputs": [
        {
          "indexed": true,
          "internalType": "address",
          "name": "owner",
          "type": "address"
        },
        {
          "indexed": true,
          "internalType": "address",
          "name": "approved",
          "type": "address"
        },
        {
          "indexed": true,
          "internalType": "uint256",
          "name": "tokenId",
          "type": "uint256"
        }
      ],
      "name": "Approval",
      "type": "event"
    },
    {
      "anonymous": false,
      "inputs": [
        {
          "indexed": true,
          "internalType": "address",
          "name": "owner",
          "type": "address"
        },
        {
          "indexed": true,
          "internalType": "address",
          "name": "operator",
          "type": "address"
        },
        {
          "indexed": false,
          "internalType": "bool",
          "name": "approved",
          "type": "bool"
        }
      ],
      "name": "ApprovalForAll",
      "type": "event"
    },
    {
      "anonymous": false,
      "inputs": [
        {
          "indexed": true,
          "internalType": "address",
          "name": "from",
          "type": "address"
        },
        {
          "indexed": true,
          "internalType": "address",
          "name": "to",
          "type": "address"
        },
        {
          "indexed": true,
          "internalType": "uint256",
          "name": "tokenId",
          "type": "uint256"
        }
      ],
      "name": "Transfer",
      "type": "event"
    },
    {
      "inputs": [
        {
          "internalType": "address",
          "name": "",
          "type": "address"
        }
      ],
      "name": "AdminWhitelist",
      "outputs": [
        {
          "internalType": "bool",
          "name": "",
          "type": "bool"
        }
      ],
      "stateMutability": "view",
      "type": "function",
      "constant": true
    },
    {
      "inputs": [],
      "name": "Counter",
      "outputs": [
        {
          "internalType": "uint256",
          "name": "",
          "type": "uint256"
        }
      ],
      "stateMutability": "view",
      "type": "function",
      "constant": true
    },
    {
      "inputs": [
        {
          "internalType": "address",
          "name": "",
          "type": "address"
        }
      ],
      "name": "allBuyers",
      "outputs": [
        {
          "internalType": "address",
          "name": "wallet",
          "type": "address"
        },
        {
          "internalType": "string",
          "name": "metadata",
          "type": "string"
        }
      ],
      "stateMutability": "view",
      "type": "function",
      "constant": true
    },
    {
      "inputs": [
        {
          "internalType": "uint256",
          "name": "",
          "type": "uint256"
        }
      ],
      "name": "allLands",
      "outputs": [
        {
          "internalType": "uint256",
          "name": "id",
          "type": "uint256"
        },
        {
          "internalType": "string",
          "name": "long",
          "type": "string"
        },
        {
          "internalType": "string",
          "name": "lat",
          "type": "string"
        },
        {
          "internalType": "string",
          "name": "name",
          "type": "string"
        },
        {
          "internalType": "string",
          "name": "imageURI",
          "type": "string"
        },
        {
          "internalType": "address",
          "name": "CurrentOwner",
          "type": "address"
        },
        {
          "internalType": "string",
          "name": "metadata",
          "type": "string"
        },
        {
          "internalType": "uint256",
          "name": "currPrice",
          "type": "uint256"
        },
        {
          "internalType": "enum LandRegister.Status",
          "name": "status",
          "type": "uint8"
        }
      ],
      "stateMutability": "view",
      "type": "function",
      "constant": true
    },
    {
      "inputs": [
        {
          "internalType": "uint256",
          "name": "",
          "type": "uint256"
        }
      ],
      "name": "allrequests",
      "outputs": [
        {
          "internalType": "uint256",
          "name": "reqId",
          "type": "uint256"
        },
        {
          "internalType": "uint256",
          "name": "LandId",
          "type": "uint256"
        },
        {
          "internalType": "uint256",
          "name": "bid",
          "type": "uint256"
        },
        {
          "internalType": "address",
          "name": "wallet",
          "type": "address"
        },
        {
          "internalType": "bool",
          "name": "state",
          "type": "bool"
        }
      ],
      "stateMutability": "view",
      "type": "function",
      "constant": true
    },
    {
      "inputs": [
        {
          "internalType": "address",
          "name": "owner",
          "type": "address"
        }
      ],
      "name": "balanceOf",
      "outputs": [
        {
          "internalType": "uint256",
          "name": "",
          "type": "uint256"
        }
      ],
      "stateMutability": "view",
      "type": "function",
      "constant": true
    },
    {
      "inputs": [
        {
          "internalType": "uint256",
          "name": "tokenId",
          "type": "uint256"
        }
      ],
      "name": "getApproved",
      "outputs": [
        {
          "internalType": "address",
          "name": "",
          "type": "address"
        }
      ],
      "stateMutability": "view",
      "type": "function",
      "constant": true
    },
    {
      "inputs": [
        {
          "internalType": "address",
          "name": "owner",
          "type": "address"
        },
        {
          "internalType": "address",
          "name": "operator",
          "type": "address"
        }
      ],
      "name": "isApprovedForAll",
      "outputs": [
        {
          "internalType": "bool",
          "name": "",
          "type": "bool"
        }
      ],
      "stateMutability": "view",
      "type": "function",
      "constant": true
    },
    {
      "inputs": [],
      "name": "name",
      "outputs": [
        {
          "internalType": "string",
          "name": "",
          "type": "string"
        }
      ],
      "stateMutability": "view",
      "type": "function",
      "constant": true
    },
    {
      "inputs": [
        {
          "internalType": "uint256",
          "name": "tokenId",
          "type": "uint256"
        }
      ],
      "name": "ownerOf",
      "outputs": [
        {
          "internalType": "address",
          "name": "",
          "type": "address"
        }
      ],
      "stateMutability": "view",
      "type": "function",
      "constant": true
    },
    {
      "inputs": [],
      "name": "reqCounter",
      "outputs": [
        {
          "internalType": "uint256",
          "name": "",
          "type": "uint256"
        }
      ],
      "stateMutability": "view",
      "type": "function",
      "constant": true
    },
    {
      "inputs": [
        {
          "internalType": "address",
          "name": "from",
          "type": "address"
        },
        {
          "internalType": "address",
          "name": "to",
          "type": "address"
        },
        {
          "internalType": "uint256",
          "name": "tokenId",
          "type": "uint256"
        }
      ],
      "name": "safeTransferFrom",
      "outputs": [],
      "stateMutability": "nonpayable",
      "type": "function"
    },
    {
      "inputs": [
        {
          "internalType": "address",
          "name": "from",
          "type": "address"
        },
        {
          "internalType": "address",
          "name": "to",
          "type": "address"
        },
        {
          "internalType": "uint256",
          "name": "tokenId",
          "type": "uint256"
        },
        {
          "internalType": "bytes",
          "name": "data",
          "type": "bytes"
        }
      ],
      "name": "safeTransferFrom",
      "outputs": [],
      "stateMutability": "nonpayable",
      "type": "function"
    },
    {
      "inputs": [
        {
          "internalType": "address",
          "name": "operator",
          "type": "address"
        },
        {
          "internalType": "bool",
          "name": "approved",
          "type": "bool"
        }
      ],
      "name": "setApprovalForAll",
      "outputs": [],
      "stateMutability": "nonpayable",
      "type": "function"
    },
    {
      "inputs": [],
      "name": "superAdmin",
      "outputs": [
        {
          "internalType": "address",
          "name": "",
          "type": "address"
        }
      ],
      "stateMutability": "view",
      "type": "function",
      "constant": true
    },
    {
      "inputs": [
        {
          "internalType": "bytes4",
          "name": "interfaceId",
          "type": "bytes4"
        }
      ],
      "name": "supportsInterface",
      "outputs": [
        {
          "internalType": "bool",
          "name": "",
          "type": "bool"
        }
      ],
      "stateMutability": "view",
      "type": "function",
      "constant": true
    },
    {
      "inputs": [],
      "name": "symbol",
      "outputs": [
        {
          "internalType": "string",
          "name": "",
          "type": "string"
        }
      ],
      "stateMutability": "view",
      "type": "function",
      "constant": true
    },
    {
      "inputs": [],
      "name": "token1",
      "outputs": [
        {
          "internalType": "contract IERC20",
          "name": "",
          "type": "address"
        }
      ],
      "stateMutability": "view",
      "type": "function",
      "constant": true
    },
    {
      "inputs": [
        {
          "internalType": "uint256",
          "name": "tokenId",
          "type": "uint256"
        }
      ],
      "name": "tokenURI",
      "outputs": [
        {
          "internalType": "string",
          "name": "",
          "type": "string"
        }
      ],
      "stateMutability": "view",
      "type": "function",
      "constant": true
    },
    {
      "inputs": [
        {
          "internalType": "address",
          "name": "from",
          "type": "address"
        },
        {
          "internalType": "address",
          "name": "to",
          "type": "address"
        },
        {
          "internalType": "uint256",
          "name": "tokenId",
          "type": "uint256"
        }
      ],
      "name": "transferFrom",
      "outputs": [],
      "stateMutability": "nonpayable",
      "type": "function"
    },
    {
      "inputs": [
        {
          "internalType": "address",
          "name": "wallet",
          "type": "address"
        },
        {
          "internalType": "string",
          "name": "kycData",
          "type": "string"
        }
      ],
      "name": "Signup",
      "outputs": [],
      "stateMutability": "nonpayable",
      "type": "function"
    },
    {
      "inputs": [
        {
          "internalType": "address",
          "name": "add",
          "type": "address"
        }
      ],
      "name": "whiteList",
      "outputs": [],
      "stateMutability": "nonpayable",
      "type": "function"
    },
    {
      "inputs": [
        {
          "internalType": "uint256",
          "name": "id",
          "type": "uint256"
        },
        {
          "internalType": "uint256",
          "name": "bid",
          "type": "uint256"
        },
        {
          "internalType": "address",
          "name": "wallet",
          "type": "address"
        }
      ],
      "name": "request",
      "outputs": [],
      "stateMutability": "nonpayable",
      "type": "function"
    },
    {
      "inputs": [
        {
          "internalType": "address",
          "name": "to",
          "type": "address"
        },
        {
          "internalType": "uint256",
          "name": "tokenId",
          "type": "uint256"
        }
      ],
      "name": "approve",
      "outputs": [],
      "stateMutability": "nonpayable",
      "type": "function"
    },
    {
      "inputs": [
        {
          "internalType": "uint256",
          "name": "reqId",
          "type": "uint256"
        },
        {
          "internalType": "address",
          "name": "approvedOwner",
          "type": "address"
        }
      ],
      "name": "approve",
      "outputs": [],
      "stateMutability": "nonpayable",
      "type": "function"
    },
    {
      "inputs": [
        {
          "internalType": "uint256",
          "name": "id",
          "type": "uint256"
        },
        {
          "internalType": "address",
          "name": "receiver",
          "type": "address"
        }
      ],
      "name": "transferLand",
      "outputs": [],
      "stateMutability": "nonpayable",
      "type": "function"
    },
    {
      "inputs": [
        {
          "internalType": "uint256",
          "name": "id",
          "type": "uint256"
        },
        {
          "internalType": "uint256",
          "name": "price",
          "type": "uint256"
        }
      ],
      "name": "buy",
      "outputs": [],
      "stateMutability": "nonpayable",
      "type": "function"
    },
    {
      "inputs": [
        {
          "internalType": "uint256",
          "name": "id",
          "type": "uint256"
        },
        {
          "internalType": "uint256",
          "name": "price",
          "type": "uint256"
        }
      ],
      "name": "putOnSale",
      "outputs": [],
      "stateMutability": "nonpayable",
      "type": "function"
    },
    {
      "inputs": [
        {
          "internalType": "string",
          "name": "name",
          "type": "string"
        },
        {
          "internalType": "uint256",
          "name": "currPrice",
          "type": "uint256"
        },
        {
          "internalType": "string",
          "name": "image",
          "type": "string"
        },
        {
          "internalType": "string",
          "name": "metadata",
          "type": "string"
        },
        {
          "internalType": "string",
          "name": "long",
          "type": "string"
        },
        {
          "internalType": "string",
          "name": "lat",
          "type": "string"
        }
      ],
      "name": "addLand",
      "outputs": [],
      "stateMutability": "nonpayable",
      "type": "function"
    }
  ],
  "bytecode": "0x608060405260006009556000600b553480156200001b57600080fd5b5060405162004ef338038062004ef38339818101604052810190620000419190620001c6565b6040518060400160405280600c81526020017f54657272614c616e644e465400000000000000000000000000000000000000008152506040518060400160405280600581526020017f544c4e46540000000000000000000000000000000000000000000000000000008152508160009081620000be919062000472565b508060019081620000d0919062000472565b50505080600760006101000a81548173ffffffffffffffffffffffffffffffffffffffff021916908373ffffffffffffffffffffffffffffffffffffffff16021790555033600860006101000a81548173ffffffffffffffffffffffffffffffffffffffff021916908373ffffffffffffffffffffffffffffffffffffffff1602179055505062000559565b600080fd5b600073ffffffffffffffffffffffffffffffffffffffff82169050919050565b60006200018e8262000161565b9050919050565b620001a08162000181565b8114620001ac57600080fd5b50565b600081519050620001c08162000195565b92915050565b600060208284031215620001df57620001de6200015c565b5b6000620001ef84828501620001af565b91505092915050565b600081519050919050565b7f4e487b7100000000000000000000000000000000000000000000000000000000600052604160045260246000fd5b7f4e487b7100000000000000000000000000000000000000000000000000000000600052602260045260246000fd5b600060028204905060018216806200027a57607f821691505b60208210810362000290576200028f62000232565b5b50919050565b60008190508160005260206000209050919050565b60006020601f8301049050919050565b600082821b905092915050565b600060088302620002fa7fffffffffffffffffffffffffffffffffffffffffffffffffffffffffffffffff82620002bb565b620003068683620002bb565b95508019841693508086168417925050509392505050565b6000819050919050565b6000819050919050565b6000620003536200034d62000347846200031e565b62000328565b6200031e565b9050919050565b6000819050919050565b6200036f8362000332565b620003876200037e826200035a565b848454620002c8565b825550505050565b600090565b6200039e6200038f565b620003ab81848462000364565b505050565b5b81811015620003d357620003c760008262000394565b600181019050620003b1565b5050565b601f8211156200042257620003ec8162000296565b620003f784620002ab565b8101602085101562000407578190505b6200041f6200041685620002ab565b830182620003b0565b50505b505050565b600082821c905092915050565b6000620004476000198460080262000427565b1980831691505092915050565b600062000462838362000434565b9150826002028217905092915050565b6200047d82620001f8565b67ffffffffffffffff81111562000499576200049862000203565b5b620004a5825462000261565b620004b2828285620003d7565b600060209050601f831160018114620004ea5760008415620004d5578287015190505b620004e1858262000454565b86555062000551565b601f198416620004fa8662000296565b60005b828110156200052457848901518255600182019150602085019450602081019050620004fd565b8683101562000544578489015162000540601f89168262000434565b8355505b6001600288020188555050505b505050505050565b61498a80620005696000396000f3fe608060405234801561001057600080fd5b50600436106101cf5760003560e01c80635297408a11610104578063b88d4fde116100a2578063d21220a711610071578063d21220a71461055b578063d6febde814610579578063e985e9c514610595578063febe4909146105c5576101cf565b8063b88d4fde146104d7578063c798ff7d146104f3578063c87b56dd1461050f578063c9e801e61461053f576101cf565b806378b968ea116100de57806378b968ea146104505780638038b9991461046c57806395d89b411461049d578063a22cb465146104bb576101cf565b80635297408a146103d25780636352211e146103f057806370a0823114610420576101cf565b806329575f6a11610171578063372c12b11161014b578063372c12b11461034457806341697be01461036057806342842e0e146103985780634eeca076146103b4576101cf565b806329575f6a146102ee5780633024f02a1461030c57806336f7992b14610328576101cf565b8063095ea7b3116101ad578063095ea7b3146102525780630c8318b61461026e57806323b872dd146102a25780632464cfde146102be576101cf565b806301ffc9a7146101d457806306fdde0314610204578063081812fc14610222575b600080fd5b6101ee60048036038101906101e9919061307f565b6105e1565b6040516101fb91906130c7565b60405180910390f35b61020c6106c3565b6040516102199190613172565b60405180910390f35b61023c600480360381019061023791906131ca565b610755565b6040516102499190613238565b60405180910390f35b61026c6004803603810190610267919061327f565b61079b565b005b610288600480360381019061028391906131ca565b6108b2565b6040516102999594939291906132ce565b60405180910390f35b6102bc60048036038101906102b79190613321565b610915565b005b6102d860048036038101906102d39190613374565b610975565b6040516102e591906130c7565b60405180910390f35b6102f6610995565b6040516103039190613238565b60405180910390f35b610326600480360381019061032191906133a1565b6109bb565b005b610342600480360381019061033d91906133f4565b610bc9565b005b61035e60048036038101906103599190613374565b610ccb565b005b61037a600480360381019061037591906131ca565b610db6565b60405161038f999897969594939291906134ab565b60405180910390f35b6103b260048036038101906103ad9190613321565b6110d9565b005b6103bc6110f9565b6040516103c9919061355b565b60405180910390f35b6103da6110ff565b6040516103e7919061355b565b60405180910390f35b61040a600480360381019061040591906131ca565b611105565b6040516104179190613238565b60405180910390f35b61043a60048036038101906104359190613374565b61118b565b604051610447919061355b565b60405180910390f35b61046a600480360381019061046591906136ab565b611242565b005b61048660048036038101906104819190613374565b61136a565b604051610494929190613707565b60405180910390f35b6104a5611436565b6040516104b29190613172565b60405180910390f35b6104d560048036038101906104d09190613763565b6114c8565b005b6104f160048036038101906104ec9190613844565b6114de565b005b61050d600480360381019061050891906138c7565b611540565b005b610529600480360381019061052491906131ca565b6116f5565b6040516105369190613172565b60405180910390f35b61055960048036038101906105549190613907565b611807565b005b610563611bdb565b6040516105709190613a7f565b60405180910390f35b610593600480360381019061058e91906133f4565b611c01565b005b6105af60048036038101906105aa9190613a9a565b611ddb565b6040516105bc91906130c7565b60405180910390f35b6105df60048036038101906105da91906138c7565b611e6f565b005b60007f80ac58cd000000000000000000000000000000000000000000000000000000007bffffffffffffffffffffffffffffffffffffffffffffffffffffffff1916827bffffffffffffffffffffffffffffffffffffffffffffffffffffffff191614806106ac57507f5b5e139f000000000000000000000000000000000000000000000000000000007bffffffffffffffffffffffffffffffffffffffffffffffffffffffff1916827bffffffffffffffffffffffffffffffffffffffffffffffffffffffff1916145b806106bc57506106bb82611ff5565b5b9050919050565b6060600080546106d290613b09565b80601f01602080910402602001604051908101604052809291908181526020018280546106fe90613b09565b801561074b5780601f106107205761010080835404028352916020019161074b565b820191906000526020600020905b81548152906001019060200180831161072e57829003601f168201915b5050505050905090565b60006107608261205f565b6004600083815260200190815260200160002060009054906101000a900473ffffffffffffffffffffffffffffffffffffffff169050919050565b60006107a682611105565b90508073ffffffffffffffffffffffffffffffffffffffff168373ffffffffffffffffffffffffffffffffffffffff1603610816576040517f08c379a000000000000000000000000000000000000000000000000000000000815260040161080d90613bac565b60405180910390fd5b8073ffffffffffffffffffffffffffffffffffffffff166108356120aa565b73ffffffffffffffffffffffffffffffffffffffff16148061086457506108638161085e6120aa565b611ddb565b5b6108a3576040517f08c379a000000000000000000000000000000000000000000000000000000000815260040161089a90613c3e565b60405180910390fd5b6108ad83836120b2565b505050565b600e6020528060005260406000206000915090508060000154908060010154908060020154908060030160009054906101000a900473ffffffffffffffffffffffffffffffffffffffff16908060030160149054906101000a900460ff16905085565b6109266109206120aa565b8261216b565b610965576040517f08c379a000000000000000000000000000000000000000000000000000000000815260040161095c90613cd0565b60405180910390fd5b610970838383612200565b505050565b600a6020528060005260406000206000915054906101000a900460ff1681565b600860009054906101000a900473ffffffffffffffffffffffffffffffffffffffff1681565b600d60008273ffffffffffffffffffffffffffffffffffffffff1673ffffffffffffffffffffffffffffffffffffffff168152602001908152602001600020600001839080600181540180825580915050600190039060005260206000200160009091909190915055610a2c612e1f565b80600e6000600954815260200190815260200160002060008201518160000155602082015181600101556040820151816002015560608201518160030160006101000a81548173ffffffffffffffffffffffffffffffffffffffff021916908373ffffffffffffffffffffffffffffffffffffffff16021790555060808201518160030160146101000a81548160ff0219169083151502179055509050506001600e6000600954815260200190815260200160002060030160146101000a81548160ff02191690831515021790555082600e600060095481526020019081526020016000206002018190555083600e6000600954815260200190815260200160002060010181905550600954600e600060095481526020019081526020016000206000018190555081600e6000600954815260200190815260200160002060030160006101000a81548173ffffffffffffffffffffffffffffffffffffffff021916908373ffffffffffffffffffffffffffffffffffffffff16021790555060096000815480929190610bbe90613d1f565b919050555050505050565b600c600083815260200190815260200160002060050160009054906101000a900473ffffffffffffffffffffffffffffffffffffffff1673ffffffffffffffffffffffffffffffffffffffff163373ffffffffffffffffffffffffffffffffffffffff1614610c6d576040517f08c379a0000000000000000000000000000000000000000000000000000000008152600401610c6490613db3565b60405180910390fd5b6001600c600084815260200190815260200160002060080160006101000a81548160ff02191690836003811115610ca757610ca6613434565b5b021790555080600c6000848152602001908152602001600020600701819055505050565b600860009054906101000a900473ffffffffffffffffffffffffffffffffffffffff1673ffffffffffffffffffffffffffffffffffffffff163373ffffffffffffffffffffffffffffffffffffffff1614610d5b576040517f08c379a0000000000000000000000000000000000000000000000000000000008152600401610d5290613e1f565b60405180910390fd5b6001600a60008373ffffffffffffffffffffffffffffffffffffffff1673ffffffffffffffffffffffffffffffffffffffff16815260200190815260200160002060006101000a81548160ff02191690831515021790555050565b600c602052806000526040600020600091509050806000015490806001018054610ddf90613b09565b80601f0160208091040260200160405190810160405280929190818152602001828054610e0b90613b09565b8015610e585780601f10610e2d57610100808354040283529160200191610e58565b820191906000526020600020905b815481529060010190602001808311610e3b57829003601f168201915b505050505090806002018054610e6d90613b09565b80601f0160208091040260200160405190810160405280929190818152602001828054610e9990613b09565b8015610ee65780601f10610ebb57610100808354040283529160200191610ee6565b820191906000526020600020905b815481529060010190602001808311610ec957829003601f168201915b505050505090806003018054610efb90613b09565b80601f0160208091040260200160405190810160405280929190818152602001828054610f2790613b09565b8015610f745780601f10610f4957610100808354040283529160200191610f74565b820191906000526020600020905b815481529060010190602001808311610f5757829003601f168201915b505050505090806004018054610f8990613b09565b80601f0160208091040260200160405190810160405280929190818152602001828054610fb590613b09565b80156110025780601f10610fd757610100808354040283529160200191611002565b820191906000526020600020905b815481529060010190602001808311610fe557829003601f168201915b5050505050908060050160009054906101000a900473ffffffffffffffffffffffffffffffffffffffff169080600601805461103d90613b09565b80601f016020809104026020016040519081016040528092919081815260200182805461106990613b09565b80156110b65780601f1061108b576101008083540402835291602001916110b6565b820191906000526020600020905b81548152906001019060200180831161109957829003601f168201915b5050505050908060070154908060080160009054906101000a900460ff16905089565b6110f4838383604051806020016040528060008152506114de565b505050565b600b5481565b60095481565b600080611111836124f9565b9050600073ffffffffffffffffffffffffffffffffffffffff168173ffffffffffffffffffffffffffffffffffffffff1603611182576040517f08c379a000000000000000000000000000000000000000000000000000000000815260040161117990613e8b565b60405180910390fd5b80915050919050565b60008073ffffffffffffffffffffffffffffffffffffffff168273ffffffffffffffffffffffffffffffffffffffff16036111fb576040517f08c379a00000000000000000000000000000000000000000000000000000000081526004016111f290613f1d565b60405180910390fd5b600360008373ffffffffffffffffffffffffffffffffffffffff1673ffffffffffffffffffffffffffffffffffffffff168152602001908152602001600020549050919050565b61124a612e66565b82816040019073ffffffffffffffffffffffffffffffffffffffff16908173ffffffffffffffffffffffffffffffffffffffff168152505081816060018190525080600d60008573ffffffffffffffffffffffffffffffffffffffff1673ffffffffffffffffffffffffffffffffffffffff16815260200190815260200160002060008201518160000190805190602001906112e7929190612ea4565b506020820151816001019080519060200190611304929190612ea4565b5060408201518160020160006101000a81548173ffffffffffffffffffffffffffffffffffffffff021916908373ffffffffffffffffffffffffffffffffffffffff160217905550606082015181600301908161136191906140df565b50905050505050565b600d6020528060005260406000206000915090508060020160009054906101000a900473ffffffffffffffffffffffffffffffffffffffff16908060030180546113b390613b09565b80601f01602080910402602001604051908101604052809291908181526020018280546113df90613b09565b801561142c5780601f106114015761010080835404028352916020019161142c565b820191906000526020600020905b81548152906001019060200180831161140f57829003601f168201915b5050505050905082565b60606001805461144590613b09565b80601f016020809104026020016040519081016040528092919081815260200182805461147190613b09565b80156114be5780601f10611493576101008083540402835291602001916114be565b820191906000526020600020905b8154815290600101906020018083116114a157829003601f168201915b5050505050905090565b6114da6114d36120aa565b8383612536565b5050565b6114ef6114e96120aa565b8361216b565b61152e576040517f08c379a000000000000000000000000000000000000000000000000000000000815260040161152590613cd0565b60405180910390fd5b61153a848484846126a2565b50505050565b600c600083815260200190815260200160002060050160009054906101000a900473ffffffffffffffffffffffffffffffffffffffff1673ffffffffffffffffffffffffffffffffffffffff163373ffffffffffffffffffffffffffffffffffffffff16146115e4576040517f08c379a00000000000000000000000000000000000000000000000000000000081526004016115db906141fd565b60405180910390fd5b600c6000838152602001908152602001600020600901819080600181540180825580915050600190039060005260206000200160009091909190916101000a81548173ffffffffffffffffffffffffffffffffffffffff021916908373ffffffffffffffffffffffffffffffffffffffff16021790555080600c600084815260200190815260200160002060050160006101000a81548173ffffffffffffffffffffffffffffffffffffffff021916908373ffffffffffffffffffffffffffffffffffffffff1602179055506116f1600c600084815260200190815260200160002060050160009054906101000a900473ffffffffffffffffffffffffffffffffffffffff1682846110d9565b5050565b60606117008261205f565b600060066000848152602001908152602001600020805461172090613b09565b80601f016020809104026020016040519081016040528092919081815260200182805461174c90613b09565b80156117995780601f1061176e57610100808354040283529160200191611799565b820191906000526020600020905b81548152906001019060200180831161177c57829003601f168201915b5050505050905060006117aa6126fe565b905060008151036117bf578192505050611802565b6000825111156117f45780826040516020016117dc929190614259565b60405160208183030381529060405292505050611802565b6117fd84612715565b925050505b919050565b60011515600a60003373ffffffffffffffffffffffffffffffffffffffff1673ffffffffffffffffffffffffffffffffffffffff16815260200190815260200160002060009054906101000a900460ff1615151461189a576040517f08c379a000000000000000000000000000000000000000000000000000000000815260040161189190613db3565b60405180910390fd5b6000600b5490506118a9612ef1565b81816000018181525050878160600181905250338160a0019073ffffffffffffffffffffffffffffffffffffffff16908173ffffffffffffffffffffffffffffffffffffffff1681525050868160e0018181525050838160200181905250828160400181905250848160c0018190525085816080018190525080600c600084815260200190815260200160002060008201518160000155602082015181600101908161195591906140df565b50604082015181600201908161196b91906140df565b50606082015181600301908161198191906140df565b50608082015181600401908161199791906140df565b5060a08201518160050160006101000a81548173ffffffffffffffffffffffffffffffffffffffff021916908373ffffffffffffffffffffffffffffffffffffffff16021790555060c08201518160060190816119f491906140df565b5060e082015181600701556101008201518160080160006101000a81548160ff02191690836003811115611a2b57611a2a613434565b5b0217905550610120820151816009019080519060200190611a4d929190612f6c565b509050506001600c600084815260200190815260200160002060080160006101000a81548160ff02191690836003811115611a8b57611a8a613434565b5b0217905550600c6000838152602001908152602001600020600901339080600181540180825580915050600190039060005260206000200160009091909190916101000a81548173ffffffffffffffffffffffffffffffffffffffff021916908373ffffffffffffffffffffffffffffffffffffffff160217905550611b11338361277d565b611bb982600c60008581526020019081526020016000206006018054611b3690613b09565b80601f0160208091040260200160405190810160405280929190818152602001828054611b6290613b09565b8015611baf5780601f10611b8457610100808354040283529160200191611baf565b820191906000526020600020905b815481529060010190602001808311611b9257829003601f168201915b505050505061299a565b600b6000815480929190611bcc90613d1f565b91905055505050505050505050565b600760009054906101000a900473ffffffffffffffffffffffffffffffffffffffff1681565b600c600083815260200190815260200160002060050160009054906101000a900473ffffffffffffffffffffffffffffffffffffffff1673ffffffffffffffffffffffffffffffffffffffff163373ffffffffffffffffffffffffffffffffffffffff1614611ca5576040517f08c379a0000000000000000000000000000000000000000000000000000000008152600401611c9c90613db3565b60405180910390fd5b6000600c600084815260200190815260200160002060080160006101000a81548160ff02191690836003811115611cdf57611cde613434565b5b0217905550600060129050600081600a611cf991906143b0565b83611d0491906143fb565b9050600760009054906101000a900473ffffffffffffffffffffffffffffffffffffffff1673ffffffffffffffffffffffffffffffffffffffff166323b872dd33600860009054906101000a900473ffffffffffffffffffffffffffffffffffffffff16846040518463ffffffff1660e01b8152600401611d879392919061443d565b6020604051808303816000875af1158015611da6573d6000803e3d6000fd5b505050506040513d601f19601f82011682018060405250810190611dca9190614489565b50611dd58433611540565b50505050565b6000600560008473ffffffffffffffffffffffffffffffffffffffff1673ffffffffffffffffffffffffffffffffffffffff16815260200190815260200160002060008373ffffffffffffffffffffffffffffffffffffffff1673ffffffffffffffffffffffffffffffffffffffff16815260200190815260200160002060009054906101000a900460ff16905092915050565b60011515600a60003373ffffffffffffffffffffffffffffffffffffffff1673ffffffffffffffffffffffffffffffffffffffff16815260200190815260200160002060009054906101000a900460ff16151514611f02576040517f08c379a0000000000000000000000000000000000000000000000000000000008152600401611ef990613db3565b60405180910390fd5b80600c6000600e600086815260200190815260200160002060010154815260200190815260200160002060050160006101000a81548173ffffffffffffffffffffffffffffffffffffffff021916908373ffffffffffffffffffffffffffffffffffffffff1602179055506002600c6000600e600086815260200190815260200160002060010154815260200190815260200160002060080160006101000a81548160ff02191690836003811115611fbd57611fbc613434565b5b02179055506000600e600084815260200190815260200160002060030160146101000a81548160ff0219169083151502179055505050565b60007f01ffc9a7000000000000000000000000000000000000000000000000000000007bffffffffffffffffffffffffffffffffffffffffffffffffffffffff1916827bffffffffffffffffffffffffffffffffffffffffffffffffffffffff1916149050919050565b61206881612a07565b6120a7576040517f08c379a000000000000000000000000000000000000000000000000000000000815260040161209e90613e8b565b60405180910390fd5b50565b600033905090565b816004600083815260200190815260200160002060006101000a81548173ffffffffffffffffffffffffffffffffffffffff021916908373ffffffffffffffffffffffffffffffffffffffff160217905550808273ffffffffffffffffffffffffffffffffffffffff1661212583611105565b73ffffffffffffffffffffffffffffffffffffffff167f8c5be1e5ebec7d5bd14f71427d1e84f3dd0314c0f7b2291e5b200ac8c7c3b92560405160405180910390a45050565b60008061217783611105565b90508073ffffffffffffffffffffffffffffffffffffffff168473ffffffffffffffffffffffffffffffffffffffff1614806121b957506121b88185611ddb565b5b806121f757508373ffffffffffffffffffffffffffffffffffffffff166121df84610755565b73ffffffffffffffffffffffffffffffffffffffff16145b91505092915050565b8273ffffffffffffffffffffffffffffffffffffffff1661222082611105565b73ffffffffffffffffffffffffffffffffffffffff1614612276576040517f08c379a000000000000000000000000000000000000000000000000000000000815260040161226d90614528565b60405180910390fd5b600073ffffffffffffffffffffffffffffffffffffffff168273ffffffffffffffffffffffffffffffffffffffff16036122e5576040517f08c379a00000000000000000000000000000000000000000000000000000000081526004016122dc906145ba565b60405180910390fd5b6122f28383836001612a48565b8273ffffffffffffffffffffffffffffffffffffffff1661231282611105565b73ffffffffffffffffffffffffffffffffffffffff1614612368576040517f08c379a000000000000000000000000000000000000000000000000000000000815260040161235f90614528565b60405180910390fd5b6004600082815260200190815260200160002060006101000a81549073ffffffffffffffffffffffffffffffffffffffff02191690556001600360008573ffffffffffffffffffffffffffffffffffffffff1673ffffffffffffffffffffffffffffffffffffffff168152602001908152602001600020600082825403925050819055506001600360008473ffffffffffffffffffffffffffffffffffffffff1673ffffffffffffffffffffffffffffffffffffffff16815260200190815260200160002060008282540192505081905550816002600083815260200190815260200160002060006101000a81548173ffffffffffffffffffffffffffffffffffffffff021916908373ffffffffffffffffffffffffffffffffffffffff160217905550808273ffffffffffffffffffffffffffffffffffffffff168473ffffffffffffffffffffffffffffffffffffffff167fddf252ad1be2c89b69c2b068fc378daa952ba7f163c4a11628f55a4df523b3ef60405160405180910390a46124f48383836001612a4e565b505050565b60006002600083815260200190815260200160002060009054906101000a900473ffffffffffffffffffffffffffffffffffffffff169050919050565b8173ffffffffffffffffffffffffffffffffffffffff168373ffffffffffffffffffffffffffffffffffffffff16036125a4576040517f08c379a000000000000000000000000000000000000000000000000000000000815260040161259b90614626565b60405180910390fd5b80600560008573ffffffffffffffffffffffffffffffffffffffff1673ffffffffffffffffffffffffffffffffffffffff16815260200190815260200160002060008473ffffffffffffffffffffffffffffffffffffffff1673ffffffffffffffffffffffffffffffffffffffff16815260200190815260200160002060006101000a81548160ff0219169083151502179055508173ffffffffffffffffffffffffffffffffffffffff168373ffffffffffffffffffffffffffffffffffffffff167f17307eab39ab6107e8899845ad3d59bd9653f200f220920489ca2b5937696c318360405161269591906130c7565b60405180910390a3505050565b6126ad848484612200565b6126b984848484612a54565b6126f8576040517f08c379a00000000000000000000000000000000000000000000000000000000081526004016126ef906146b8565b60405180910390fd5b50505050565b606060405180602001604052806000815250905090565b60606127208261205f565b600061272a6126fe565b9050600081511161274a5760405180602001604052806000815250612775565b8061275484612bdb565b604051602001612765929190614259565b6040516020818303038152906040525b915050919050565b600073ffffffffffffffffffffffffffffffffffffffff168273ffffffffffffffffffffffffffffffffffffffff16036127ec576040517f08c379a00000000000000000000000000000000000000000000000000000000081526004016127e390614724565b60405180910390fd5b6127f581612a07565b15612835576040517f08c379a000000000000000000000000000000000000000000000000000000000815260040161282c90614790565b60405180910390fd5b612843600083836001612a48565b61284c81612a07565b1561288c576040517f08c379a000000000000000000000000000000000000000000000000000000000815260040161288390614790565b60405180910390fd5b6001600360008473ffffffffffffffffffffffffffffffffffffffff1673ffffffffffffffffffffffffffffffffffffffff16815260200190815260200160002060008282540192505081905550816002600083815260200190815260200160002060006101000a81548173ffffffffffffffffffffffffffffffffffffffff021916908373ffffffffffffffffffffffffffffffffffffffff160217905550808273ffffffffffffffffffffffffffffffffffffffff16600073ffffffffffffffffffffffffffffffffffffffff167fddf252ad1be2c89b69c2b068fc378daa952ba7f163c4a11628f55a4df523b3ef60405160405180910390a4612996600083836001612a4e565b5050565b6129a382612a07565b6129e2576040517f08c379a00000000000000000000000000000000000000000000000000000000081526004016129d990614822565b60405180910390fd5b80600660008481526020019081526020016000209081612a0291906140df565b505050565b60008073ffffffffffffffffffffffffffffffffffffffff16612a29836124f9565b73ffffffffffffffffffffffffffffffffffffffff1614159050919050565b50505050565b50505050565b6000612a758473ffffffffffffffffffffffffffffffffffffffff16612ca9565b15612bce578373ffffffffffffffffffffffffffffffffffffffff1663150b7a02612a9e6120aa565b8786866040518563ffffffff1660e01b8152600401612ac09493929190614897565b6020604051808303816000875af1925050508015612afc57506040513d601f19601f82011682018060405250810190612af991906148f8565b60015b612b7e573d8060008114612b2c576040519150601f19603f3d011682016040523d82523d6000602084013e612b31565b606091505b506000815103612b76576040517f08c379a0000000000000000000000000000000000000000000000000000000008152600401612b6d906146b8565b60405180910390fd5b805181602001fd5b63150b7a0260e01b7bffffffffffffffffffffffffffffffffffffffffffffffffffffffff1916817bffffffffffffffffffffffffffffffffffffffffffffffffffffffff191614915050612bd3565b600190505b949350505050565b606060006001612bea84612ccc565b01905060008167ffffffffffffffff811115612c0957612c08613580565b5b6040519080825280601f01601f191660200182016040528015612c3b5781602001600182028036833780820191505090505b509050600082602001820190505b600115612c9e578080600190039150507f3031323334353637383961626364656600000000000000000000000000000000600a86061a8153600a8581612c9257612c91614925565b5b04945060008503612c49575b819350505050919050565b6000808273ffffffffffffffffffffffffffffffffffffffff163b119050919050565b600080600090507a184f03e93ff9f4daa797ed6e38ed64bf6a1f0100000000000000008310612d2a577a184f03e93ff9f4daa797ed6e38ed64bf6a1f0100000000000000008381612d2057612d1f614925565b5b0492506040810190505b6d04ee2d6d415b85acef81000000008310612d67576d04ee2d6d415b85acef81000000008381612d5d57612d5c614925565b5b0492506020810190505b662386f26fc100008310612d9657662386f26fc100008381612d8c57612d8b614925565b5b0492506010810190505b6305f5e1008310612dbf576305f5e1008381612db557612db4614925565b5b0492506008810190505b6127108310612de4576127108381612dda57612dd9614925565b5b0492506004810190505b60648310612e075760648381612dfd57612dfc614925565b5b0492506002810190505b600a8310612e16576001810190505b80915050919050565b6040518060a00160405280600081526020016000815260200160008152602001600073ffffffffffffffffffffffffffffffffffffffff1681526020016000151581525090565b60405180608001604052806060815260200160608152602001600073ffffffffffffffffffffffffffffffffffffffff168152602001606081525090565b828054828255906000526020600020908101928215612ee0579160200282015b82811115612edf578251825591602001919060010190612ec4565b5b509050612eed9190612ff6565b5090565b6040518061014001604052806000815260200160608152602001606081526020016060815260200160608152602001600073ffffffffffffffffffffffffffffffffffffffff168152602001606081526020016000815260200160006003811115612f5f57612f5e613434565b5b8152602001606081525090565b828054828255906000526020600020908101928215612fe5579160200282015b82811115612fe45782518260006101000a81548173ffffffffffffffffffffffffffffffffffffffff021916908373ffffffffffffffffffffffffffffffffffffffff16021790555091602001919060010190612f8c565b5b509050612ff29190612ff6565b5090565b5b8082111561300f576000816000905550600101612ff7565b5090565b6000604051905090565b600080fd5b600080fd5b60007fffffffff0000000000000000000000000000000000000000000000000000000082169050919050565b61305c81613027565b811461306757600080fd5b50565b60008135905061307981613053565b92915050565b6000602082840312156130955761309461301d565b5b60006130a38482850161306a565b91505092915050565b60008115159050919050565b6130c1816130ac565b82525050565b60006020820190506130dc60008301846130b8565b92915050565b600081519050919050565b600082825260208201905092915050565b60005b8381101561311c578082015181840152602081019050613101565b60008484015250505050565b6000601f19601f8301169050919050565b6000613144826130e2565b61314e81856130ed565b935061315e8185602086016130fe565b61316781613128565b840191505092915050565b6000602082019050818103600083015261318c8184613139565b905092915050565b6000819050919050565b6131a781613194565b81146131b257600080fd5b50565b6000813590506131c48161319e565b92915050565b6000602082840312156131e0576131df61301d565b5b60006131ee848285016131b5565b91505092915050565b600073ffffffffffffffffffffffffffffffffffffffff82169050919050565b6000613222826131f7565b9050919050565b61323281613217565b82525050565b600060208201905061324d6000830184613229565b92915050565b61325c81613217565b811461326757600080fd5b50565b60008135905061327981613253565b92915050565b600080604083850312156132965761329561301d565b5b60006132a48582860161326a565b92505060206132b5858286016131b5565b9150509250929050565b6132c881613194565b82525050565b600060a0820190506132e360008301886132bf565b6132f060208301876132bf565b6132fd60408301866132bf565b61330a6060830185613229565b61331760808301846130b8565b9695505050505050565b60008060006060848603121561333a5761333961301d565b5b60006133488682870161326a565b93505060206133598682870161326a565b925050604061336a868287016131b5565b9150509250925092565b60006020828403121561338a5761338961301d565b5b60006133988482850161326a565b91505092915050565b6000806000606084860312156133ba576133b961301d565b5b60006133c8868287016131b5565b93505060206133d9868287016131b5565b92505060406133ea8682870161326a565b9150509250925092565b6000806040838503121561340b5761340a61301d565b5b6000613419858286016131b5565b925050602061342a858286016131b5565b9150509250929050565b7f4e487b7100000000000000000000000000000000000000000000000000000000600052602160045260246000fd5b6004811061347457613473613434565b5b50565b600081905061348582613463565b919050565b600061349582613477565b9050919050565b6134a58161348a565b82525050565b6000610120820190506134c1600083018c6132bf565b81810360208301526134d3818b613139565b905081810360408301526134e7818a613139565b905081810360608301526134fb8189613139565b9050818103608083015261350f8188613139565b905061351e60a0830187613229565b81810360c08301526135308186613139565b905061353f60e08301856132bf565b61354d61010083018461349c565b9a9950505050505050505050565b600060208201905061357060008301846132bf565b92915050565b600080fd5b600080fd5b7f4e487b7100000000000000000000000000000000000000000000000000000000600052604160045260246000fd5b6135b882613128565b810181811067ffffffffffffffff821117156135d7576135d6613580565b5b80604052505050565b60006135ea613013565b90506135f682826135af565b919050565b600067ffffffffffffffff82111561361657613615613580565b5b61361f82613128565b9050602081019050919050565b82818337600083830152505050565b600061364e613649846135fb565b6135e0565b90508281526020810184848401111561366a5761366961357b565b5b61367584828561362c565b509392505050565b600082601f83011261369257613691613576565b5b81356136a284826020860161363b565b91505092915050565b600080604083850312156136c2576136c161301d565b5b60006136d08582860161326a565b925050602083013567ffffffffffffffff8111156136f1576136f0613022565b5b6136fd8582860161367d565b9150509250929050565b600060408201905061371c6000830185613229565b818103602083015261372e8184613139565b90509392505050565b613740816130ac565b811461374b57600080fd5b50565b60008135905061375d81613737565b92915050565b6000806040838503121561377a5761377961301d565b5b60006137888582860161326a565b92505060206137998582860161374e565b9150509250929050565b600067ffffffffffffffff8211156137be576137bd613580565b5b6137c782613128565b9050602081019050919050565b60006137e76137e2846137a3565b6135e0565b9050828152602081018484840111156138035761380261357b565b5b61380e84828561362c565b509392505050565b600082601f83011261382b5761382a613576565b5b813561383b8482602086016137d4565b91505092915050565b6000806000806080858703121561385e5761385d61301d565b5b600061386c8782880161326a565b945050602061387d8782880161326a565b935050604061388e878288016131b5565b925050606085013567ffffffffffffffff8111156138af576138ae613022565b5b6138bb87828801613816565b91505092959194509250565b600080604083850312156138de576138dd61301d565b5b60006138ec858286016131b5565b92505060206138fd8582860161326a565b9150509250929050565b60008060008060008060c087890312156139245761392361301d565b5b600087013567ffffffffffffffff81111561394257613941613022565b5b61394e89828a0161367d565b965050602061395f89828a016131b5565b955050604087013567ffffffffffffffff8111156139805761397f613022565b5b61398c89828a0161367d565b945050606087013567ffffffffffffffff8111156139ad576139ac613022565b5b6139b989828a0161367d565b935050608087013567ffffffffffffffff8111156139da576139d9613022565b5b6139e689828a0161367d565b92505060a087013567ffffffffffffffff811115613a0757613a06613022565b5b613a1389828a0161367d565b9150509295509295509295565b6000819050919050565b6000613a45613a40613a3b846131f7565b613a20565b6131f7565b9050919050565b6000613a5782613a2a565b9050919050565b6000613a6982613a4c565b9050919050565b613a7981613a5e565b82525050565b6000602082019050613a946000830184613a70565b92915050565b60008060408385031215613ab157613ab061301d565b5b6000613abf8582860161326a565b9250506020613ad08582860161326a565b9150509250929050565b7f4e487b7100000000000000000000000000000000000000000000000000000000600052602260045260246000fd5b60006002820490506001821680613b2157607f821691505b602082108103613b3457613b33613ada565b5b50919050565b7f4552433732313a20617070726f76616c20746f2063757272656e74206f776e6560008201527f7200000000000000000000000000000000000000000000000000000000000000602082015250565b6000613b966021836130ed565b9150613ba182613b3a565b604082019050919050565b60006020820190508181036000830152613bc581613b89565b9050919050565b7f4552433732313a20617070726f76652063616c6c6572206973206e6f7420746f60008201527f6b656e206f776e6572206f7220617070726f76656420666f7220616c6c000000602082015250565b6000613c28603d836130ed565b9150613c3382613bcc565b604082019050919050565b60006020820190508181036000830152613c5781613c1b565b9050919050565b7f4552433732313a2063616c6c6572206973206e6f7420746f6b656e206f776e6560008201527f72206f7220617070726f76656400000000000000000000000000000000000000602082015250565b6000613cba602d836130ed565b9150613cc582613c5e565b604082019050919050565b60006020820190508181036000830152613ce981613cad565b9050919050565b7f4e487b7100000000000000000000000000000000000000000000000000000000600052601160045260246000fd5b6000613d2a82613194565b91507fffffffffffffffffffffffffffffffffffffffffffffffffffffffffffffffff8203613d5c57613d5b613cf0565b5b600182019050919050565b7f536f72727920596f7520617265206e6f7420417574686f726973656400000000600082015250565b6000613d9d601c836130ed565b9150613da882613d67565b602082019050919050565b60006020820190508181036000830152613dcc81613d90565b9050919050565b7f596f7520617265206e6f7420617574686f726973656400000000000000000000600082015250565b6000613e096016836130ed565b9150613e1482613dd3565b602082019050919050565b60006020820190508181036000830152613e3881613dfc565b9050919050565b7f4552433732313a20696e76616c696420746f6b656e2049440000000000000000600082015250565b6000613e756018836130ed565b9150613e8082613e3f565b602082019050919050565b60006020820190508181036000830152613ea481613e68565b9050919050565b7f4552433732313a2061646472657373207a65726f206973206e6f74206120766160008201527f6c6964206f776e65720000000000000000000000000000000000000000000000602082015250565b6000613f076029836130ed565b9150613f1282613eab565b604082019050919050565b60006020820190508181036000830152613f3681613efa565b9050919050565b60008190508160005260206000209050919050565b60006020601f8301049050919050565b600082821b905092915050565b600060088302613f9f7fffffffffffffffffffffffffffffffffffffffffffffffffffffffffffffffff82613f62565b613fa98683613f62565b95508019841693508086168417925050509392505050565b6000613fdc613fd7613fd284613194565b613a20565b613194565b9050919050565b6000819050919050565b613ff683613fc1565b61400a61400282613fe3565b848454613f6f565b825550505050565b600090565b61401f614012565b61402a818484613fed565b505050565b5b8181101561404e57614043600082614017565b600181019050614030565b5050565b601f8211156140935761406481613f3d565b61406d84613f52565b8101602085101561407c578190505b61409061408885613f52565b83018261402f565b50505b505050565b600082821c905092915050565b60006140b660001984600802614098565b1980831691505092915050565b60006140cf83836140a5565b9150826002028217905092915050565b6140e8826130e2565b67ffffffffffffffff81111561410157614100613580565b5b61410b8254613b09565b614116828285614052565b600060209050601f8311600181146141495760008415614137578287015190505b61414185826140c3565b8655506141a9565b601f19841661415786613f3d565b60005b8281101561417f5784890151825560018201915060208501945060208101905061415a565b8683101561419c5784890151614198601f8916826140a5565b8355505b6001600288020188555050505b505050505050565b7f4e6f7420746865204f776e657200000000000000000000000000000000000000600082015250565b60006141e7600d836130ed565b91506141f2826141b1565b602082019050919050565b60006020820190508181036000830152614216816141da565b9050919050565b600081905092915050565b6000614233826130e2565b61423d818561421d565b935061424d8185602086016130fe565b80840191505092915050565b60006142658285614228565b91506142718284614228565b91508190509392505050565b60008160011c9050919050565b6000808291508390505b60018511156142d4578086048111156142b0576142af613cf0565b5b60018516156142bf5780820291505b80810290506142cd8561427d565b9450614294565b94509492505050565b6000826142ed57600190506143a9565b816142fb57600090506143a9565b8160018114614311576002811461431b5761434a565b60019150506143a9565b60ff84111561432d5761432c613cf0565b5b8360020a91508482111561434457614343613cf0565b5b506143a9565b5060208310610133831016604e8410600b841016171561437f5782820a90508381111561437a57614379613cf0565b5b6143a9565b61438c848484600161428a565b925090508184048111156143a3576143a2613cf0565b5b81810290505b9392505050565b60006143bb82613194565b91506143c683613194565b92506143f37fffffffffffffffffffffffffffffffffffffffffffffffffffffffffffffffff84846142dd565b905092915050565b600061440682613194565b915061441183613194565b925082820261441f81613194565b9150828204841483151761443657614435613cf0565b5b5092915050565b60006060820190506144526000830186613229565b61445f6020830185613229565b61446c60408301846132bf565b949350505050565b60008151905061448381613737565b92915050565b60006020828403121561449f5761449e61301d565b5b60006144ad84828501614474565b91505092915050565b7f4552433732313a207472616e736665722066726f6d20696e636f72726563742060008201527f6f776e6572000000000000000000000000000000000000000000000000000000602082015250565b60006145126025836130ed565b915061451d826144b6565b604082019050919050565b6000602082019050818103600083015261454181614505565b9050919050565b7f4552433732313a207472616e7366657220746f20746865207a65726f2061646460008201527f7265737300000000000000000000000000000000000000000000000000000000602082015250565b60006145a46024836130ed565b91506145af82614548565b604082019050919050565b600060208201905081810360008301526145d381614597565b9050919050565b7f4552433732313a20617070726f766520746f2063616c6c657200000000000000600082015250565b60006146106019836130ed565b915061461b826145da565b602082019050919050565b6000602082019050818103600083015261463f81614603565b9050919050565b7f4552433732313a207472616e7366657220746f206e6f6e20455243373231526560008201527f63656976657220696d706c656d656e7465720000000000000000000000000000602082015250565b60006146a26032836130ed565b91506146ad82614646565b604082019050919050565b600060208201905081810360008301526146d181614695565b9050919050565b7f4552433732313a206d696e7420746f20746865207a65726f2061646472657373600082015250565b600061470e6020836130ed565b9150614719826146d8565b602082019050919050565b6000602082019050818103600083015261473d81614701565b9050919050565b7f4552433732313a20746f6b656e20616c7265616479206d696e74656400000000600082015250565b600061477a601c836130ed565b915061478582614744565b602082019050919050565b600060208201905081810360008301526147a98161476d565b9050919050565b7f45524337323155524953746f726167653a2055524920736574206f66206e6f6e60008201527f6578697374656e7420746f6b656e000000000000000000000000000000000000602082015250565b600061480c602e836130ed565b9150614817826147b0565b604082019050919050565b6000602082019050818103600083015261483b816147ff565b9050919050565b600081519050919050565b600082825260208201905092915050565b600061486982614842565b614873818561484d565b93506148838185602086016130fe565b61488c81613128565b840191505092915050565b60006080820190506148ac6000830187613229565b6148b96020830186613229565b6148c660408301856132bf565b81810360608301526148d8818461485e565b905095945050505050565b6000815190506148f281613053565b92915050565b60006020828403121561490e5761490d61301d565b5b600061491c848285016148e3565b91505092915050565b7f4e487b7100000000000000000000000000000000000000000000000000000000600052601260045260246000fdfea2646970667358221220ce471c9dd8673f499a1303563af85360addc7a817beffebb751edf640008dac764736f6c63430008130033",
  "immutableReferences": {},
  "source": "// SPDX-License-Identifier: MIT\npragma solidity ^0.8.7;\nimport \"@openzeppelin/contracts/token/ERC721/extensions/ERC721URIStorage.sol\";\nimport \"@openzeppelin/contracts/token/ERC20/IERC20.sol\";\n\n\ncontract LandRegister is ERC721URIStorage {\n    IERC20 public token1;\n    address public superAdmin;\n\n    constructor(address token) ERC721(\"TerraLandNFT\", \"TLNFT\") {\n        token1 = IERC20(token);\n        superAdmin = msg.sender;\n    }\n\n    uint256 public reqCounter = 0;\n    mapping(address => bool) public AdminWhitelist;\n\n    struct buyer {\n        uint256[] request;\n        uint256[] lands;\n        address wallet;\n        string metadata;\n    }\n    struct requestLands {\n        uint256 reqId;\n       uint256 LandId;\n        uint256 bid;\n        address wallet;\n        bool state;\n    }\n    enum Status {\n        sold,\n        onSale,\n        awaitingPayment,\n        reserved\n    }\n\n    uint256 public Counter = 0;\n    struct Land {\n        uint256 id;\n        string long;\n        string lat;\n        string name;\n        string imageURI;\n        address CurrentOwner;\n        string metadata;\n        uint256 currPrice;\n        Status status;\n        address[] Owners;\n    }\n    mapping(uint256 => Land) public allLands;\n    mapping(address => buyer) public allBuyers;\n    mapping(uint256 => requestLands) public allrequests;\n\n    function Signup(address wallet, string memory kycData) public {\n        buyer memory newBuyer;\n        newBuyer.wallet = wallet;\n        newBuyer.metadata = kycData;\n        allBuyers[wallet] = newBuyer;\n    }\n\n    function whiteList(address add) public {\n        require(msg.sender == superAdmin, \"You are not authorised\");\n        AdminWhitelist[add] = true;\n    }\n\n    function request(\n     \n        uint256 id,\n        uint256 bid,\n        address wallet\n    ) public {\n        allBuyers[wallet].request.push(id);\n        requestLands memory newLand;\n        allrequests[reqCounter] = newLand;\n        allrequests[reqCounter].state = true;\n        allrequests[reqCounter].bid = bid;\n        allrequests[reqCounter].LandId = id;\n         allrequests[reqCounter].reqId = reqCounter;\n         allrequests[reqCounter].wallet = wallet;\n\n        reqCounter++;\n    }\n\n    function approve(uint256 reqId, address approvedOwner) public {\n        require(\n            AdminWhitelist[msg.sender] == true,\n            \"Sorry You are not Authorised\"\n        );\n        allLands[allrequests[reqId].LandId].CurrentOwner = approvedOwner;\n        allLands[allrequests[reqId].LandId].status = Status.awaitingPayment;\n        allrequests[reqId].state = false;\n    }\n\n    function transferLand(uint256 id, address receiver) public {\n        require(msg.sender == allLands[id].CurrentOwner, \"Not the Owner\");\n        allLands[id].Owners.push(receiver);\n        allLands[id].CurrentOwner = receiver;\n        safeTransferFrom(allLands[id].CurrentOwner, receiver, id);\n    }\n\n    function buy(uint256 id, uint256 price) public {\n        require(\n            msg.sender == allLands[id].CurrentOwner,\n            \"Sorry You are not Authorised\"\n        );\n        allLands[id].status = Status.sold;\n        uint256 decimals = 18;\n        uint256 finalPrice = price * 10**decimals;\n        token1.transferFrom(msg.sender, superAdmin, finalPrice);\n        transferLand(id, msg.sender);\n    }\n\n    function putOnSale(uint256 id, uint256 price) public {\n        require(\n            msg.sender == allLands[id].CurrentOwner,\n            \"Sorry You are not Authorised\"\n        );\n        allLands[id].status = Status.onSale;\n        allLands[id].currPrice = price;\n    }\n\n    function addLand(\n        string memory name,\n        uint256 currPrice,\n        string memory image,\n        string memory metadata,\n        string memory long,\n        string memory lat\n    ) public {\n        require(\n            AdminWhitelist[msg.sender] == true,\n            \"Sorry You are not Authorised\"\n        );\n        uint256 id = Counter;\n\n        Land memory newLand;\n        newLand.id = id;\n        newLand.name = name;\n        newLand.CurrentOwner = msg.sender;\n        newLand.currPrice = currPrice;\n        newLand.long = long;\n        newLand.lat = lat;\n        newLand.metadata = metadata;\n        newLand.imageURI = image;\n        allLands[id] = newLand;\n        allLands[id].status = Status.onSale;\n        allLands[id].Owners.push(msg.sender);\n        _mint(msg.sender, id);\n        _setTokenURI(id, allLands[id].metadata);\n        Counter++;\n    }\n}\n",
  "sourcePath": "A:\\Sem-VI\\Distributed Systems\\Projects\\Land-Registry\\truffle\\contracts\\LandRegister.sol",
  "compiler": {
    "name": "solc",
    "version": "0.8.19+commit.7dd6d404.Emscripten.clang"
  },
  "schemaVersion": "3.4.8",
  "updatedAt": "2023-04-30T03:17:47.657Z",
  "networkType": "ethereum",
  "devdoc": {
    "events": {
      "Approval(address,address,uint256)": {
        "details": "Emitted when `owner` enables `approved` to manage the `tokenId` token."
      },
      "ApprovalForAll(address,address,bool)": {
        "details": "Emitted when `owner` enables or disables (`approved`) `operator` to manage all of its assets."
      },
      "Transfer(address,address,uint256)": {
        "details": "Emitted when `tokenId` token is transferred from `from` to `to`."
      }
    },
    "kind": "dev",
    "methods": {
      "approve(address,uint256)": {
        "details": "See {IERC721-approve}."
      },
      "balanceOf(address)": {
        "details": "See {IERC721-balanceOf}."
      },
      "getApproved(uint256)": {
        "details": "See {IERC721-getApproved}."
      },
      "isApprovedForAll(address,address)": {
        "details": "See {IERC721-isApprovedForAll}."
      },
      "name()": {
        "details": "See {IERC721Metadata-name}."
      },
      "ownerOf(uint256)": {
        "details": "See {IERC721-ownerOf}."
      },
      "safeTransferFrom(address,address,uint256)": {
        "details": "See {IERC721-safeTransferFrom}."
      },
      "safeTransferFrom(address,address,uint256,bytes)": {
        "details": "See {IERC721-safeTransferFrom}."
      },
      "setApprovalForAll(address,bool)": {
        "details": "See {IERC721-setApprovalForAll}."
      },
      "supportsInterface(bytes4)": {
        "details": "See {IERC165-supportsInterface}."
      },
      "symbol()": {
        "details": "See {IERC721Metadata-symbol}."
      },
      "tokenURI(uint256)": {
        "details": "See {IERC721Metadata-tokenURI}."
      },
      "transferFrom(address,address,uint256)": {
        "details": "See {IERC721-transferFrom}."
      }
    },
    "version": 1
  },
  "userdoc": {
    "kind": "user",
    "methods": {},
    "version": 1
  }
}