{
  "contractName": "LandRegister",
  "abi": [
    {
      "inputs": [
        {
          "internalType": "address",
          "name": "token",
          "type": "address"
        }
      ],
      "stateMutability": "nonpayable",
      "type": "constructor"
    },
    {
      "anonymous": false,
      "inputs": [
        {
          "indexed": true,
          "internalType": "address",
          "name": "owner",
          "type": "address"
        },
        {
          "indexed": true,
          "internalType": "address",
          "name": "approved",
          "type": "address"
        },
        {
          "indexed": true,
          "internalType": "uint256",
          "name": "tokenId",
          "type": "uint256"
        }
      ],
      "name": "Approval",
      "type": "event"
    },
    {
      "anonymous": false,
      "inputs": [
        {
          "indexed": true,
          "internalType": "address",
          "name": "owner",
          "type": "address"
        },
        {
          "indexed": true,
          "internalType": "address",
          "name": "operator",
          "type": "address"
        },
        {
          "indexed": false,
          "internalType": "bool",
          "name": "approved",
          "type": "bool"
        }
      ],
      "name": "ApprovalForAll",
      "type": "event"
    },
    {
      "anonymous": false,
      "inputs": [
        {
          "indexed": true,
          "internalType": "address",
          "name": "from",
          "type": "address"
        },
        {
          "indexed": true,
          "internalType": "address",
          "name": "to",
          "type": "address"
        },
        {
          "indexed": true,
          "internalType": "uint256",
          "name": "tokenId",
          "type": "uint256"
        }
      ],
      "name": "Transfer",
      "type": "event"
    },
    {
      "inputs": [
        {
          "internalType": "address",
          "name": "",
          "type": "address"
        }
      ],
      "name": "AdminWhitelist",
      "outputs": [
        {
          "internalType": "bool",
          "name": "",
          "type": "bool"
        }
      ],
      "stateMutability": "view",
      "type": "function",
      "constant": true
    },
    {
      "inputs": [],
      "name": "Counter",
      "outputs": [
        {
          "internalType": "uint256",
          "name": "",
          "type": "uint256"
        }
      ],
      "stateMutability": "view",
      "type": "function",
      "constant": true
    },
    {
      "inputs": [
        {
          "internalType": "address",
          "name": "",
          "type": "address"
        }
      ],
      "name": "allBuyers",
      "outputs": [
        {
          "internalType": "address",
          "name": "wallet",
          "type": "address"
        },
        {
          "internalType": "string",
          "name": "metadata",
          "type": "string"
        }
      ],
      "stateMutability": "view",
      "type": "function",
      "constant": true
    },
    {
      "inputs": [
        {
          "internalType": "uint256",
          "name": "",
          "type": "uint256"
        }
      ],
      "name": "allLands",
      "outputs": [
        {
          "internalType": "uint256",
          "name": "id",
          "type": "uint256"
        },
        {
          "internalType": "string",
          "name": "long",
          "type": "string"
        },
        {
          "internalType": "string",
          "name": "lat",
          "type": "string"
        },
        {
          "internalType": "string",
          "name": "name",
          "type": "string"
        },
        {
          "internalType": "string",
          "name": "imageURI",
          "type": "string"
        },
        {
          "internalType": "address",
          "name": "CurrentOwner",
          "type": "address"
        },
        {
          "internalType": "string",
          "name": "metadata",
          "type": "string"
        },
        {
          "internalType": "uint256",
          "name": "currPrice",
          "type": "uint256"
        },
        {
          "internalType": "enum LandRegister.Status",
          "name": "status",
          "type": "uint8"
        }
      ],
      "stateMutability": "view",
      "type": "function",
      "constant": true
    },
    {
      "inputs": [
        {
          "internalType": "uint256",
          "name": "",
          "type": "uint256"
        }
      ],
      "name": "allrequests",
      "outputs": [
        {
          "internalType": "uint256",
          "name": "LandId",
          "type": "uint256"
        },
        {
          "internalType": "uint256",
          "name": "bid",
          "type": "uint256"
        },
        {
          "internalType": "bool",
          "name": "state",
          "type": "bool"
        }
      ],
      "stateMutability": "view",
      "type": "function",
      "constant": true
    },
    {
      "inputs": [
        {
          "internalType": "address",
          "name": "owner",
          "type": "address"
        }
      ],
      "name": "balanceOf",
      "outputs": [
        {
          "internalType": "uint256",
          "name": "",
          "type": "uint256"
        }
      ],
      "stateMutability": "view",
      "type": "function",
      "constant": true
    },
    {
      "inputs": [
        {
          "internalType": "uint256",
          "name": "tokenId",
          "type": "uint256"
        }
      ],
      "name": "getApproved",
      "outputs": [
        {
          "internalType": "address",
          "name": "",
          "type": "address"
        }
      ],
      "stateMutability": "view",
      "type": "function",
      "constant": true
    },
    {
      "inputs": [
        {
          "internalType": "address",
          "name": "owner",
          "type": "address"
        },
        {
          "internalType": "address",
          "name": "operator",
          "type": "address"
        }
      ],
      "name": "isApprovedForAll",
      "outputs": [
        {
          "internalType": "bool",
          "name": "",
          "type": "bool"
        }
      ],
      "stateMutability": "view",
      "type": "function",
      "constant": true
    },
    {
      "inputs": [],
      "name": "name",
      "outputs": [
        {
          "internalType": "string",
          "name": "",
          "type": "string"
        }
      ],
      "stateMutability": "view",
      "type": "function",
      "constant": true
    },
    {
      "inputs": [
        {
          "internalType": "uint256",
          "name": "tokenId",
          "type": "uint256"
        }
      ],
      "name": "ownerOf",
      "outputs": [
        {
          "internalType": "address",
          "name": "",
          "type": "address"
        }
      ],
      "stateMutability": "view",
      "type": "function",
      "constant": true
    },
    {
      "inputs": [],
      "name": "reqCounter",
      "outputs": [
        {
          "internalType": "uint256",
          "name": "",
          "type": "uint256"
        }
      ],
      "stateMutability": "view",
      "type": "function",
      "constant": true
    },
    {
      "inputs": [
        {
          "internalType": "address",
          "name": "from",
          "type": "address"
        },
        {
          "internalType": "address",
          "name": "to",
          "type": "address"
        },
        {
          "internalType": "uint256",
          "name": "tokenId",
          "type": "uint256"
        }
      ],
      "name": "safeTransferFrom",
      "outputs": [],
      "stateMutability": "nonpayable",
      "type": "function"
    },
    {
      "inputs": [
        {
          "internalType": "address",
          "name": "from",
          "type": "address"
        },
        {
          "internalType": "address",
          "name": "to",
          "type": "address"
        },
        {
          "internalType": "uint256",
          "name": "tokenId",
          "type": "uint256"
        },
        {
          "internalType": "bytes",
          "name": "data",
          "type": "bytes"
        }
      ],
      "name": "safeTransferFrom",
      "outputs": [],
      "stateMutability": "nonpayable",
      "type": "function"
    },
    {
      "inputs": [
        {
          "internalType": "address",
          "name": "operator",
          "type": "address"
        },
        {
          "internalType": "bool",
          "name": "approved",
          "type": "bool"
        }
      ],
      "name": "setApprovalForAll",
      "outputs": [],
      "stateMutability": "nonpayable",
      "type": "function"
    },
    {
      "inputs": [],
      "name": "superAdmin",
      "outputs": [
        {
          "internalType": "address",
          "name": "",
          "type": "address"
        }
      ],
      "stateMutability": "view",
      "type": "function",
      "constant": true
    },
    {
      "inputs": [
        {
          "internalType": "bytes4",
          "name": "interfaceId",
          "type": "bytes4"
        }
      ],
      "name": "supportsInterface",
      "outputs": [
        {
          "internalType": "bool",
          "name": "",
          "type": "bool"
        }
      ],
      "stateMutability": "view",
      "type": "function",
      "constant": true
    },
    {
      "inputs": [],
      "name": "symbol",
      "outputs": [
        {
          "internalType": "string",
          "name": "",
          "type": "string"
        }
      ],
      "stateMutability": "view",
      "type": "function",
      "constant": true
    },
    {
      "inputs": [],
      "name": "token1",
      "outputs": [
        {
          "internalType": "contract IERC20",
          "name": "",
          "type": "address"
        }
      ],
      "stateMutability": "view",
      "type": "function",
      "constant": true
    },
    {
      "inputs": [
        {
          "internalType": "uint256",
          "name": "tokenId",
          "type": "uint256"
        }
      ],
      "name": "tokenURI",
      "outputs": [
        {
          "internalType": "string",
          "name": "",
          "type": "string"
        }
      ],
      "stateMutability": "view",
      "type": "function",
      "constant": true
    },
    {
      "inputs": [
        {
          "internalType": "address",
          "name": "from",
          "type": "address"
        },
        {
          "internalType": "address",
          "name": "to",
          "type": "address"
        },
        {
          "internalType": "uint256",
          "name": "tokenId",
          "type": "uint256"
        }
      ],
      "name": "transferFrom",
      "outputs": [],
      "stateMutability": "nonpayable",
      "type": "function"
    },
    {
      "inputs": [
        {
          "internalType": "address",
          "name": "wallet",
          "type": "address"
        },
        {
          "internalType": "string",
          "name": "kycData",
          "type": "string"
        }
      ],
      "name": "Signup",
      "outputs": [],
      "stateMutability": "nonpayable",
      "type": "function"
    },
    {
      "inputs": [
        {
          "internalType": "address",
          "name": "add",
          "type": "address"
        }
      ],
      "name": "whiteList",
      "outputs": [],
      "stateMutability": "nonpayable",
      "type": "function"
    },
    {
      "inputs": [
        {
          "internalType": "uint256",
          "name": "id",
          "type": "uint256"
        },
        {
          "internalType": "uint256",
          "name": "bid",
          "type": "uint256"
        },
        {
          "internalType": "address",
          "name": "wallet",
          "type": "address"
        }
      ],
      "name": "request",
      "outputs": [],
      "stateMutability": "nonpayable",
      "type": "function"
    },
    {
      "inputs": [
        {
          "internalType": "address",
          "name": "to",
          "type": "address"
        },
        {
          "internalType": "uint256",
          "name": "tokenId",
          "type": "uint256"
        }
      ],
      "name": "approve",
      "outputs": [],
      "stateMutability": "nonpayable",
      "type": "function"
    },
    {
      "inputs": [
        {
          "internalType": "uint256",
          "name": "reqId",
          "type": "uint256"
        },
        {
          "internalType": "address",
          "name": "approvedOwner",
          "type": "address"
        }
      ],
      "name": "approve",
      "outputs": [],
      "stateMutability": "nonpayable",
      "type": "function"
    },
    {
      "inputs": [
        {
          "internalType": "uint256",
          "name": "id",
          "type": "uint256"
        },
        {
          "internalType": "address",
          "name": "receiver",
          "type": "address"
        }
      ],
      "name": "transferLand",
      "outputs": [],
      "stateMutability": "nonpayable",
      "type": "function"
    },
    {
      "inputs": [
        {
          "internalType": "uint256",
          "name": "id",
          "type": "uint256"
        },
        {
          "internalType": "uint256",
          "name": "price",
          "type": "uint256"
        }
      ],
      "name": "buy",
      "outputs": [],
      "stateMutability": "nonpayable",
      "type": "function"
    },
    {
      "inputs": [
        {
          "internalType": "uint256",
          "name": "id",
          "type": "uint256"
        },
        {
          "internalType": "uint256",
          "name": "price",
          "type": "uint256"
        }
      ],
      "name": "putOnSale",
      "outputs": [],
      "stateMutability": "nonpayable",
      "type": "function"
    },
    {
      "inputs": [
        {
          "internalType": "string",
          "name": "name",
          "type": "string"
        },
        {
          "internalType": "uint256",
          "name": "currPrice",
          "type": "uint256"
        },
        {
          "internalType": "string",
          "name": "image",
          "type": "string"
        },
        {
          "internalType": "string",
          "name": "metadata",
          "type": "string"
        },
        {
          "internalType": "string",
          "name": "long",
          "type": "string"
        },
        {
          "internalType": "string",
          "name": "lat",
          "type": "string"
        }
      ],
      "name": "addLand",
      "outputs": [],
      "stateMutability": "nonpayable",
      "type": "function"
    }
  ],
  "bytecode": "0x608060405260006009556000600b553480156200001b57600080fd5b5060405162004dbe38038062004dbe8339818101604052810190620000419190620001c6565b6040518060400160405280600c81526020017f54657272614c616e644e465400000000000000000000000000000000000000008152506040518060400160405280600581526020017f544c4e46540000000000000000000000000000000000000000000000000000008152508160009081620000be919062000472565b508060019081620000d0919062000472565b50505080600760006101000a81548173ffffffffffffffffffffffffffffffffffffffff021916908373ffffffffffffffffffffffffffffffffffffffff16021790555033600860006101000a81548173ffffffffffffffffffffffffffffffffffffffff021916908373ffffffffffffffffffffffffffffffffffffffff1602179055505062000559565b600080fd5b600073ffffffffffffffffffffffffffffffffffffffff82169050919050565b60006200018e8262000161565b9050919050565b620001a08162000181565b8114620001ac57600080fd5b50565b600081519050620001c08162000195565b92915050565b600060208284031215620001df57620001de6200015c565b5b6000620001ef84828501620001af565b91505092915050565b600081519050919050565b7f4e487b7100000000000000000000000000000000000000000000000000000000600052604160045260246000fd5b7f4e487b7100000000000000000000000000000000000000000000000000000000600052602260045260246000fd5b600060028204905060018216806200027a57607f821691505b60208210810362000290576200028f62000232565b5b50919050565b60008190508160005260206000209050919050565b60006020601f8301049050919050565b600082821b905092915050565b600060088302620002fa7fffffffffffffffffffffffffffffffffffffffffffffffffffffffffffffffff82620002bb565b620003068683620002bb565b95508019841693508086168417925050509392505050565b6000819050919050565b6000819050919050565b6000620003536200034d62000347846200031e565b62000328565b6200031e565b9050919050565b6000819050919050565b6200036f8362000332565b620003876200037e826200035a565b848454620002c8565b825550505050565b600090565b6200039e6200038f565b620003ab81848462000364565b505050565b5b81811015620003d357620003c760008262000394565b600181019050620003b1565b5050565b601f8211156200042257620003ec8162000296565b620003f784620002ab565b8101602085101562000407578190505b6200041f6200041685620002ab565b830182620003b0565b50505b505050565b600082821c905092915050565b6000620004476000198460080262000427565b1980831691505092915050565b600062000462838362000434565b9150826002028217905092915050565b6200047d82620001f8565b67ffffffffffffffff81111562000499576200049862000203565b5b620004a5825462000261565b620004b2828285620003d7565b600060209050601f831160018114620004ea5760008415620004d5578287015190505b620004e1858262000454565b86555062000551565b601f198416620004fa8662000296565b60005b828110156200052457848901518255600182019150602085019450602081019050620004fd565b8683101562000544578489015162000540601f89168262000434565b8355505b6001600288020188555050505b505050505050565b61485580620005696000396000f3fe608060405234801561001057600080fd5b50600436106101cf5760003560e01c80635297408a11610104578063b88d4fde116100a2578063d21220a711610071578063d21220a714610559578063d6febde814610577578063e985e9c514610593578063febe4909146105c3576101cf565b8063b88d4fde146104d5578063c798ff7d146104f1578063c87b56dd1461050d578063c9e801e61461053d576101cf565b806378b968ea116100de57806378b968ea1461044e5780638038b9991461046a57806395d89b411461049b578063a22cb465146104b9576101cf565b80635297408a146103d05780636352211e146103ee57806370a082311461041e576101cf565b806329575f6a11610171578063372c12b11161014b578063372c12b11461034257806341697be01461035e57806342842e0e146103965780634eeca076146103b2576101cf565b806329575f6a146102ec5780633024f02a1461030a57806336f7992b14610326576101cf565b8063095ea7b3116101ad578063095ea7b3146102525780630c8318b61461026e57806323b872dd146102a05780632464cfde146102bc576101cf565b806301ffc9a7146101d457806306fdde0314610204578063081812fc14610222575b600080fd5b6101ee60048036038101906101e99190612f66565b6105df565b6040516101fb9190612fae565b60405180910390f35b61020c6106c1565b6040516102199190613059565b60405180910390f35b61023c600480360381019061023791906130b1565b610753565b604051610249919061311f565b60405180910390f35b61026c60048036038101906102679190613166565b610799565b005b610288600480360381019061028391906130b1565b6108b0565b604051610297939291906131b5565b60405180910390f35b6102ba60048036038101906102b591906131ec565b6108e7565b005b6102d660048036038101906102d1919061323f565b610947565b6040516102e39190612fae565b60405180910390f35b6102f4610967565b604051610301919061311f565b60405180910390f35b610324600480360381019061031f919061326c565b61098d565b005b610340600480360381019061033b91906132bf565b610ad4565b005b61035c6004803603810190610357919061323f565b610bd6565b005b610378600480360381019061037391906130b1565b610cc1565b60405161038d99989796959493929190613376565b60405180910390f35b6103b060048036038101906103ab91906131ec565b610fe4565b005b6103ba611004565b6040516103c79190613426565b60405180910390f35b6103d861100a565b6040516103e59190613426565b60405180910390f35b610408600480360381019061040391906130b1565b611010565b604051610415919061311f565b60405180910390f35b6104386004803603810190610433919061323f565b611096565b6040516104459190613426565b60405180910390f35b61046860048036038101906104639190613576565b61114d565b005b610484600480360381019061047f919061323f565b611275565b6040516104929291906135d2565b60405180910390f35b6104a3611341565b6040516104b09190613059565b60405180910390f35b6104d360048036038101906104ce919061362e565b6113d3565b005b6104ef60048036038101906104ea919061370f565b6113e9565b005b61050b60048036038101906105069190613792565b61144b565b005b610527600480360381019061052291906130b1565b611600565b6040516105349190613059565b60405180910390f35b610557600480360381019061055291906137d2565b611712565b005b610561611ae6565b60405161056e919061394a565b60405180910390f35b610591600480360381019061058c91906132bf565b611b0c565b005b6105ad60048036038101906105a89190613965565b611ce6565b6040516105ba9190612fae565b60405180910390f35b6105dd60048036038101906105d89190613792565b611d7a565b005b60007f80ac58cd000000000000000000000000000000000000000000000000000000007bffffffffffffffffffffffffffffffffffffffffffffffffffffffff1916827bffffffffffffffffffffffffffffffffffffffffffffffffffffffff191614806106aa57507f5b5e139f000000000000000000000000000000000000000000000000000000007bffffffffffffffffffffffffffffffffffffffffffffffffffffffff1916827bffffffffffffffffffffffffffffffffffffffffffffffffffffffff1916145b806106ba57506106b982611f00565b5b9050919050565b6060600080546106d0906139d4565b80601f01602080910402602001604051908101604052809291908181526020018280546106fc906139d4565b80156107495780601f1061071e57610100808354040283529160200191610749565b820191906000526020600020905b81548152906001019060200180831161072c57829003601f168201915b5050505050905090565b600061075e82611f6a565b6004600083815260200190815260200160002060009054906101000a900473ffffffffffffffffffffffffffffffffffffffff169050919050565b60006107a482611010565b90508073ffffffffffffffffffffffffffffffffffffffff168373ffffffffffffffffffffffffffffffffffffffff1603610814576040517f08c379a000000000000000000000000000000000000000000000000000000000815260040161080b90613a77565b60405180910390fd5b8073ffffffffffffffffffffffffffffffffffffffff16610833611fb5565b73ffffffffffffffffffffffffffffffffffffffff16148061086257506108618161085c611fb5565b611ce6565b5b6108a1576040517f08c379a000000000000000000000000000000000000000000000000000000000815260040161089890613b09565b60405180910390fd5b6108ab8383611fbd565b505050565b600e6020528060005260406000206000915090508060000154908060010154908060020160009054906101000a900460ff16905083565b6108f86108f2611fb5565b82612076565b610937576040517f08c379a000000000000000000000000000000000000000000000000000000000815260040161092e90613b9b565b60405180910390fd5b61094283838361210b565b505050565b600a6020528060005260406000206000915054906101000a900460ff1681565b600860009054906101000a900473ffffffffffffffffffffffffffffffffffffffff1681565b600d60008273ffffffffffffffffffffffffffffffffffffffff1673ffffffffffffffffffffffffffffffffffffffff1681526020019081526020016000206000018390806001815401808255809150506001900390600052602060002001600090919091909150556109fe612d2a565b80600e60006009548152602001908152602001600020600082015181600001556020820151816001015560408201518160020160006101000a81548160ff0219169083151502179055509050506001600e6000600954815260200190815260200160002060020160006101000a81548160ff02191690831515021790555082600e600060095481526020019081526020016000206001018190555083600e600060095481526020019081526020016000206000018190555060096000815480929190610ac990613bea565b919050555050505050565b600c600083815260200190815260200160002060050160009054906101000a900473ffffffffffffffffffffffffffffffffffffffff1673ffffffffffffffffffffffffffffffffffffffff163373ffffffffffffffffffffffffffffffffffffffff1614610b78576040517f08c379a0000000000000000000000000000000000000000000000000000000008152600401610b6f90613c7e565b60405180910390fd5b6001600c600084815260200190815260200160002060080160006101000a81548160ff02191690836003811115610bb257610bb16132ff565b5b021790555080600c6000848152602001908152602001600020600701819055505050565b600860009054906101000a900473ffffffffffffffffffffffffffffffffffffffff1673ffffffffffffffffffffffffffffffffffffffff163373ffffffffffffffffffffffffffffffffffffffff1614610c66576040517f08c379a0000000000000000000000000000000000000000000000000000000008152600401610c5d90613cea565b60405180910390fd5b6001600a60008373ffffffffffffffffffffffffffffffffffffffff1673ffffffffffffffffffffffffffffffffffffffff16815260200190815260200160002060006101000a81548160ff02191690831515021790555050565b600c602052806000526040600020600091509050806000015490806001018054610cea906139d4565b80601f0160208091040260200160405190810160405280929190818152602001828054610d16906139d4565b8015610d635780601f10610d3857610100808354040283529160200191610d63565b820191906000526020600020905b815481529060010190602001808311610d4657829003601f168201915b505050505090806002018054610d78906139d4565b80601f0160208091040260200160405190810160405280929190818152602001828054610da4906139d4565b8015610df15780601f10610dc657610100808354040283529160200191610df1565b820191906000526020600020905b815481529060010190602001808311610dd457829003601f168201915b505050505090806003018054610e06906139d4565b80601f0160208091040260200160405190810160405280929190818152602001828054610e32906139d4565b8015610e7f5780601f10610e5457610100808354040283529160200191610e7f565b820191906000526020600020905b815481529060010190602001808311610e6257829003601f168201915b505050505090806004018054610e94906139d4565b80601f0160208091040260200160405190810160405280929190818152602001828054610ec0906139d4565b8015610f0d5780601f10610ee257610100808354040283529160200191610f0d565b820191906000526020600020905b815481529060010190602001808311610ef057829003601f168201915b5050505050908060050160009054906101000a900473ffffffffffffffffffffffffffffffffffffffff1690806006018054610f48906139d4565b80601f0160208091040260200160405190810160405280929190818152602001828054610f74906139d4565b8015610fc15780601f10610f9657610100808354040283529160200191610fc1565b820191906000526020600020905b815481529060010190602001808311610fa457829003601f168201915b5050505050908060070154908060080160009054906101000a900460ff16905089565b610fff838383604051806020016040528060008152506113e9565b505050565b600b5481565b60095481565b60008061101c83612404565b9050600073ffffffffffffffffffffffffffffffffffffffff168173ffffffffffffffffffffffffffffffffffffffff160361108d576040517f08c379a000000000000000000000000000000000000000000000000000000000815260040161108490613d56565b60405180910390fd5b80915050919050565b60008073ffffffffffffffffffffffffffffffffffffffff168273ffffffffffffffffffffffffffffffffffffffff1603611106576040517f08c379a00000000000000000000000000000000000000000000000000000000081526004016110fd90613de8565b60405180910390fd5b600360008373ffffffffffffffffffffffffffffffffffffffff1673ffffffffffffffffffffffffffffffffffffffff168152602001908152602001600020549050919050565b611155612d4d565b82816040019073ffffffffffffffffffffffffffffffffffffffff16908173ffffffffffffffffffffffffffffffffffffffff168152505081816060018190525080600d60008573ffffffffffffffffffffffffffffffffffffffff1673ffffffffffffffffffffffffffffffffffffffff16815260200190815260200160002060008201518160000190805190602001906111f2929190612d8b565b50602082015181600101908051906020019061120f929190612d8b565b5060408201518160020160006101000a81548173ffffffffffffffffffffffffffffffffffffffff021916908373ffffffffffffffffffffffffffffffffffffffff160217905550606082015181600301908161126c9190613faa565b50905050505050565b600d6020528060005260406000206000915090508060020160009054906101000a900473ffffffffffffffffffffffffffffffffffffffff16908060030180546112be906139d4565b80601f01602080910402602001604051908101604052809291908181526020018280546112ea906139d4565b80156113375780601f1061130c57610100808354040283529160200191611337565b820191906000526020600020905b81548152906001019060200180831161131a57829003601f168201915b5050505050905082565b606060018054611350906139d4565b80601f016020809104026020016040519081016040528092919081815260200182805461137c906139d4565b80156113c95780601f1061139e576101008083540402835291602001916113c9565b820191906000526020600020905b8154815290600101906020018083116113ac57829003601f168201915b5050505050905090565b6113e56113de611fb5565b8383612441565b5050565b6113fa6113f4611fb5565b83612076565b611439576040517f08c379a000000000000000000000000000000000000000000000000000000000815260040161143090613b9b565b60405180910390fd5b611445848484846125ad565b50505050565b600c600083815260200190815260200160002060050160009054906101000a900473ffffffffffffffffffffffffffffffffffffffff1673ffffffffffffffffffffffffffffffffffffffff163373ffffffffffffffffffffffffffffffffffffffff16146114ef576040517f08c379a00000000000000000000000000000000000000000000000000000000081526004016114e6906140c8565b60405180910390fd5b600c6000838152602001908152602001600020600901819080600181540180825580915050600190039060005260206000200160009091909190916101000a81548173ffffffffffffffffffffffffffffffffffffffff021916908373ffffffffffffffffffffffffffffffffffffffff16021790555080600c600084815260200190815260200160002060050160006101000a81548173ffffffffffffffffffffffffffffffffffffffff021916908373ffffffffffffffffffffffffffffffffffffffff1602179055506115fc600c600084815260200190815260200160002060050160009054906101000a900473ffffffffffffffffffffffffffffffffffffffff168284610fe4565b5050565b606061160b82611f6a565b600060066000848152602001908152602001600020805461162b906139d4565b80601f0160208091040260200160405190810160405280929190818152602001828054611657906139d4565b80156116a45780601f10611679576101008083540402835291602001916116a4565b820191906000526020600020905b81548152906001019060200180831161168757829003601f168201915b5050505050905060006116b5612609565b905060008151036116ca57819250505061170d565b6000825111156116ff5780826040516020016116e7929190614124565b6040516020818303038152906040529250505061170d565b61170884612620565b925050505b919050565b60011515600a60003373ffffffffffffffffffffffffffffffffffffffff1673ffffffffffffffffffffffffffffffffffffffff16815260200190815260200160002060009054906101000a900460ff161515146117a5576040517f08c379a000000000000000000000000000000000000000000000000000000000815260040161179c90613c7e565b60405180910390fd5b6000600b5490506117b4612dd8565b81816000018181525050878160600181905250338160a0019073ffffffffffffffffffffffffffffffffffffffff16908173ffffffffffffffffffffffffffffffffffffffff1681525050868160e0018181525050838160200181905250828160400181905250848160c0018190525085816080018190525080600c60008481526020019081526020016000206000820151816000015560208201518160010190816118609190613faa565b5060408201518160020190816118769190613faa565b50606082015181600301908161188c9190613faa565b5060808201518160040190816118a29190613faa565b5060a08201518160050160006101000a81548173ffffffffffffffffffffffffffffffffffffffff021916908373ffffffffffffffffffffffffffffffffffffffff16021790555060c08201518160060190816118ff9190613faa565b5060e082015181600701556101008201518160080160006101000a81548160ff02191690836003811115611936576119356132ff565b5b0217905550610120820151816009019080519060200190611958929190612e53565b509050506001600c600084815260200190815260200160002060080160006101000a81548160ff02191690836003811115611996576119956132ff565b5b0217905550600c6000838152602001908152602001600020600901339080600181540180825580915050600190039060005260206000200160009091909190916101000a81548173ffffffffffffffffffffffffffffffffffffffff021916908373ffffffffffffffffffffffffffffffffffffffff160217905550611a1c3383612688565b611ac482600c60008581526020019081526020016000206006018054611a41906139d4565b80601f0160208091040260200160405190810160405280929190818152602001828054611a6d906139d4565b8015611aba5780601f10611a8f57610100808354040283529160200191611aba565b820191906000526020600020905b815481529060010190602001808311611a9d57829003601f168201915b50505050506128a5565b600b6000815480929190611ad790613bea565b91905055505050505050505050565b600760009054906101000a900473ffffffffffffffffffffffffffffffffffffffff1681565b600c600083815260200190815260200160002060050160009054906101000a900473ffffffffffffffffffffffffffffffffffffffff1673ffffffffffffffffffffffffffffffffffffffff163373ffffffffffffffffffffffffffffffffffffffff1614611bb0576040517f08c379a0000000000000000000000000000000000000000000000000000000008152600401611ba790613c7e565b60405180910390fd5b6000600c600084815260200190815260200160002060080160006101000a81548160ff02191690836003811115611bea57611be96132ff565b5b0217905550600060129050600081600a611c04919061427b565b83611c0f91906142c6565b9050600760009054906101000a900473ffffffffffffffffffffffffffffffffffffffff1673ffffffffffffffffffffffffffffffffffffffff166323b872dd33600860009054906101000a900473ffffffffffffffffffffffffffffffffffffffff16846040518463ffffffff1660e01b8152600401611c9293929190614308565b6020604051808303816000875af1158015611cb1573d6000803e3d6000fd5b505050506040513d601f19601f82011682018060405250810190611cd59190614354565b50611ce0843361144b565b50505050565b6000600560008473ffffffffffffffffffffffffffffffffffffffff1673ffffffffffffffffffffffffffffffffffffffff16815260200190815260200160002060008373ffffffffffffffffffffffffffffffffffffffff1673ffffffffffffffffffffffffffffffffffffffff16815260200190815260200160002060009054906101000a900460ff16905092915050565b60011515600a60003373ffffffffffffffffffffffffffffffffffffffff1673ffffffffffffffffffffffffffffffffffffffff16815260200190815260200160002060009054906101000a900460ff16151514611e0d576040517f08c379a0000000000000000000000000000000000000000000000000000000008152600401611e0490613c7e565b60405180910390fd5b80600c6000600e600086815260200190815260200160002060000154815260200190815260200160002060050160006101000a81548173ffffffffffffffffffffffffffffffffffffffff021916908373ffffffffffffffffffffffffffffffffffffffff1602179055506002600c6000600e600086815260200190815260200160002060000154815260200190815260200160002060080160006101000a81548160ff02191690836003811115611ec857611ec76132ff565b5b02179055506000600e600084815260200190815260200160002060020160006101000a81548160ff0219169083151502179055505050565b60007f01ffc9a7000000000000000000000000000000000000000000000000000000007bffffffffffffffffffffffffffffffffffffffffffffffffffffffff1916827bffffffffffffffffffffffffffffffffffffffffffffffffffffffff1916149050919050565b611f7381612912565b611fb2576040517f08c379a0000000000000000000000000000000000000000000000000000000008152600401611fa990613d56565b60405180910390fd5b50565b600033905090565b816004600083815260200190815260200160002060006101000a81548173ffffffffffffffffffffffffffffffffffffffff021916908373ffffffffffffffffffffffffffffffffffffffff160217905550808273ffffffffffffffffffffffffffffffffffffffff1661203083611010565b73ffffffffffffffffffffffffffffffffffffffff167f8c5be1e5ebec7d5bd14f71427d1e84f3dd0314c0f7b2291e5b200ac8c7c3b92560405160405180910390a45050565b60008061208283611010565b90508073ffffffffffffffffffffffffffffffffffffffff168473ffffffffffffffffffffffffffffffffffffffff1614806120c457506120c38185611ce6565b5b8061210257508373ffffffffffffffffffffffffffffffffffffffff166120ea84610753565b73ffffffffffffffffffffffffffffffffffffffff16145b91505092915050565b8273ffffffffffffffffffffffffffffffffffffffff1661212b82611010565b73ffffffffffffffffffffffffffffffffffffffff1614612181576040517f08c379a0000000000000000000000000000000000000000000000000000000008152600401612178906143f3565b60405180910390fd5b600073ffffffffffffffffffffffffffffffffffffffff168273ffffffffffffffffffffffffffffffffffffffff16036121f0576040517f08c379a00000000000000000000000000000000000000000000000000000000081526004016121e790614485565b60405180910390fd5b6121fd8383836001612953565b8273ffffffffffffffffffffffffffffffffffffffff1661221d82611010565b73ffffffffffffffffffffffffffffffffffffffff1614612273576040517f08c379a000000000000000000000000000000000000000000000000000000000815260040161226a906143f3565b60405180910390fd5b6004600082815260200190815260200160002060006101000a81549073ffffffffffffffffffffffffffffffffffffffff02191690556001600360008573ffffffffffffffffffffffffffffffffffffffff1673ffffffffffffffffffffffffffffffffffffffff168152602001908152602001600020600082825403925050819055506001600360008473ffffffffffffffffffffffffffffffffffffffff1673ffffffffffffffffffffffffffffffffffffffff16815260200190815260200160002060008282540192505081905550816002600083815260200190815260200160002060006101000a81548173ffffffffffffffffffffffffffffffffffffffff021916908373ffffffffffffffffffffffffffffffffffffffff160217905550808273ffffffffffffffffffffffffffffffffffffffff168473ffffffffffffffffffffffffffffffffffffffff167fddf252ad1be2c89b69c2b068fc378daa952ba7f163c4a11628f55a4df523b3ef60405160405180910390a46123ff8383836001612959565b505050565b60006002600083815260200190815260200160002060009054906101000a900473ffffffffffffffffffffffffffffffffffffffff169050919050565b8173ffffffffffffffffffffffffffffffffffffffff168373ffffffffffffffffffffffffffffffffffffffff16036124af576040517f08c379a00000000000000000000000000000000000000000000000000000000081526004016124a6906144f1565b60405180910390fd5b80600560008573ffffffffffffffffffffffffffffffffffffffff1673ffffffffffffffffffffffffffffffffffffffff16815260200190815260200160002060008473ffffffffffffffffffffffffffffffffffffffff1673ffffffffffffffffffffffffffffffffffffffff16815260200190815260200160002060006101000a81548160ff0219169083151502179055508173ffffffffffffffffffffffffffffffffffffffff168373ffffffffffffffffffffffffffffffffffffffff167f17307eab39ab6107e8899845ad3d59bd9653f200f220920489ca2b5937696c31836040516125a09190612fae565b60405180910390a3505050565b6125b884848461210b565b6125c48484848461295f565b612603576040517f08c379a00000000000000000000000000000000000000000000000000000000081526004016125fa90614583565b60405180910390fd5b50505050565b606060405180602001604052806000815250905090565b606061262b82611f6a565b6000612635612609565b905060008151116126555760405180602001604052806000815250612680565b8061265f84612ae6565b604051602001612670929190614124565b6040516020818303038152906040525b915050919050565b600073ffffffffffffffffffffffffffffffffffffffff168273ffffffffffffffffffffffffffffffffffffffff16036126f7576040517f08c379a00000000000000000000000000000000000000000000000000000000081526004016126ee906145ef565b60405180910390fd5b61270081612912565b15612740576040517f08c379a00000000000000000000000000000000000000000000000000000000081526004016127379061465b565b60405180910390fd5b61274e600083836001612953565b61275781612912565b15612797576040517f08c379a000000000000000000000000000000000000000000000000000000000815260040161278e9061465b565b60405180910390fd5b6001600360008473ffffffffffffffffffffffffffffffffffffffff1673ffffffffffffffffffffffffffffffffffffffff16815260200190815260200160002060008282540192505081905550816002600083815260200190815260200160002060006101000a81548173ffffffffffffffffffffffffffffffffffffffff021916908373ffffffffffffffffffffffffffffffffffffffff160217905550808273ffffffffffffffffffffffffffffffffffffffff16600073ffffffffffffffffffffffffffffffffffffffff167fddf252ad1be2c89b69c2b068fc378daa952ba7f163c4a11628f55a4df523b3ef60405160405180910390a46128a1600083836001612959565b5050565b6128ae82612912565b6128ed576040517f08c379a00000000000000000000000000000000000000000000000000000000081526004016128e4906146ed565b60405180910390fd5b8060066000848152602001908152602001600020908161290d9190613faa565b505050565b60008073ffffffffffffffffffffffffffffffffffffffff1661293483612404565b73ffffffffffffffffffffffffffffffffffffffff1614159050919050565b50505050565b50505050565b60006129808473ffffffffffffffffffffffffffffffffffffffff16612bb4565b15612ad9578373ffffffffffffffffffffffffffffffffffffffff1663150b7a026129a9611fb5565b8786866040518563ffffffff1660e01b81526004016129cb9493929190614762565b6020604051808303816000875af1925050508015612a0757506040513d601f19601f82011682018060405250810190612a0491906147c3565b60015b612a89573d8060008114612a37576040519150601f19603f3d011682016040523d82523d6000602084013e612a3c565b606091505b506000815103612a81576040517f08c379a0000000000000000000000000000000000000000000000000000000008152600401612a7890614583565b60405180910390fd5b805181602001fd5b63150b7a0260e01b7bffffffffffffffffffffffffffffffffffffffffffffffffffffffff1916817bffffffffffffffffffffffffffffffffffffffffffffffffffffffff191614915050612ade565b600190505b949350505050565b606060006001612af584612bd7565b01905060008167ffffffffffffffff811115612b1457612b1361344b565b5b6040519080825280601f01601f191660200182016040528015612b465781602001600182028036833780820191505090505b509050600082602001820190505b600115612ba9578080600190039150507f3031323334353637383961626364656600000000000000000000000000000000600a86061a8153600a8581612b9d57612b9c6147f0565b5b04945060008503612b54575b819350505050919050565b6000808273ffffffffffffffffffffffffffffffffffffffff163b119050919050565b600080600090507a184f03e93ff9f4daa797ed6e38ed64bf6a1f0100000000000000008310612c35577a184f03e93ff9f4daa797ed6e38ed64bf6a1f0100000000000000008381612c2b57612c2a6147f0565b5b0492506040810190505b6d04ee2d6d415b85acef81000000008310612c72576d04ee2d6d415b85acef81000000008381612c6857612c676147f0565b5b0492506020810190505b662386f26fc100008310612ca157662386f26fc100008381612c9757612c966147f0565b5b0492506010810190505b6305f5e1008310612cca576305f5e1008381612cc057612cbf6147f0565b5b0492506008810190505b6127108310612cef576127108381612ce557612ce46147f0565b5b0492506004810190505b60648310612d125760648381612d0857612d076147f0565b5b0492506002810190505b600a8310612d21576001810190505b80915050919050565b604051806060016040528060008152602001600081526020016000151581525090565b60405180608001604052806060815260200160608152602001600073ffffffffffffffffffffffffffffffffffffffff168152602001606081525090565b828054828255906000526020600020908101928215612dc7579160200282015b82811115612dc6578251825591602001919060010190612dab565b5b509050612dd49190612edd565b5090565b6040518061014001604052806000815260200160608152602001606081526020016060815260200160608152602001600073ffffffffffffffffffffffffffffffffffffffff168152602001606081526020016000815260200160006003811115612e4657612e456132ff565b5b8152602001606081525090565b828054828255906000526020600020908101928215612ecc579160200282015b82811115612ecb5782518260006101000a81548173ffffffffffffffffffffffffffffffffffffffff021916908373ffffffffffffffffffffffffffffffffffffffff16021790555091602001919060010190612e73565b5b509050612ed99190612edd565b5090565b5b80821115612ef6576000816000905550600101612ede565b5090565b6000604051905090565b600080fd5b600080fd5b60007fffffffff0000000000000000000000000000000000000000000000000000000082169050919050565b612f4381612f0e565b8114612f4e57600080fd5b50565b600081359050612f6081612f3a565b92915050565b600060208284031215612f7c57612f7b612f04565b5b6000612f8a84828501612f51565b91505092915050565b60008115159050919050565b612fa881612f93565b82525050565b6000602082019050612fc36000830184612f9f565b92915050565b600081519050919050565b600082825260208201905092915050565b60005b83811015613003578082015181840152602081019050612fe8565b60008484015250505050565b6000601f19601f8301169050919050565b600061302b82612fc9565b6130358185612fd4565b9350613045818560208601612fe5565b61304e8161300f565b840191505092915050565b600060208201905081810360008301526130738184613020565b905092915050565b6000819050919050565b61308e8161307b565b811461309957600080fd5b50565b6000813590506130ab81613085565b92915050565b6000602082840312156130c7576130c6612f04565b5b60006130d58482850161309c565b91505092915050565b600073ffffffffffffffffffffffffffffffffffffffff82169050919050565b6000613109826130de565b9050919050565b613119816130fe565b82525050565b60006020820190506131346000830184613110565b92915050565b613143816130fe565b811461314e57600080fd5b50565b6000813590506131608161313a565b92915050565b6000806040838503121561317d5761317c612f04565b5b600061318b85828601613151565b925050602061319c8582860161309c565b9150509250929050565b6131af8161307b565b82525050565b60006060820190506131ca60008301866131a6565b6131d760208301856131a6565b6131e46040830184612f9f565b949350505050565b60008060006060848603121561320557613204612f04565b5b600061321386828701613151565b935050602061322486828701613151565b92505060406132358682870161309c565b9150509250925092565b60006020828403121561325557613254612f04565b5b600061326384828501613151565b91505092915050565b60008060006060848603121561328557613284612f04565b5b60006132938682870161309c565b93505060206132a48682870161309c565b92505060406132b586828701613151565b9150509250925092565b600080604083850312156132d6576132d5612f04565b5b60006132e48582860161309c565b92505060206132f58582860161309c565b9150509250929050565b7f4e487b7100000000000000000000000000000000000000000000000000000000600052602160045260246000fd5b6004811061333f5761333e6132ff565b5b50565b60008190506133508261332e565b919050565b600061336082613342565b9050919050565b61337081613355565b82525050565b60006101208201905061338c600083018c6131a6565b818103602083015261339e818b613020565b905081810360408301526133b2818a613020565b905081810360608301526133c68189613020565b905081810360808301526133da8188613020565b90506133e960a0830187613110565b81810360c08301526133fb8186613020565b905061340a60e08301856131a6565b613418610100830184613367565b9a9950505050505050505050565b600060208201905061343b60008301846131a6565b92915050565b600080fd5b600080fd5b7f4e487b7100000000000000000000000000000000000000000000000000000000600052604160045260246000fd5b6134838261300f565b810181811067ffffffffffffffff821117156134a2576134a161344b565b5b80604052505050565b60006134b5612efa565b90506134c1828261347a565b919050565b600067ffffffffffffffff8211156134e1576134e061344b565b5b6134ea8261300f565b9050602081019050919050565b82818337600083830152505050565b6000613519613514846134c6565b6134ab565b90508281526020810184848401111561353557613534613446565b5b6135408482856134f7565b509392505050565b600082601f83011261355d5761355c613441565b5b813561356d848260208601613506565b91505092915050565b6000806040838503121561358d5761358c612f04565b5b600061359b85828601613151565b925050602083013567ffffffffffffffff8111156135bc576135bb612f09565b5b6135c885828601613548565b9150509250929050565b60006040820190506135e76000830185613110565b81810360208301526135f98184613020565b90509392505050565b61360b81612f93565b811461361657600080fd5b50565b60008135905061362881613602565b92915050565b6000806040838503121561364557613644612f04565b5b600061365385828601613151565b925050602061366485828601613619565b9150509250929050565b600067ffffffffffffffff8211156136895761368861344b565b5b6136928261300f565b9050602081019050919050565b60006136b26136ad8461366e565b6134ab565b9050828152602081018484840111156136ce576136cd613446565b5b6136d98482856134f7565b509392505050565b600082601f8301126136f6576136f5613441565b5b813561370684826020860161369f565b91505092915050565b6000806000806080858703121561372957613728612f04565b5b600061373787828801613151565b945050602061374887828801613151565b93505060406137598782880161309c565b925050606085013567ffffffffffffffff81111561377a57613779612f09565b5b613786878288016136e1565b91505092959194509250565b600080604083850312156137a9576137a8612f04565b5b60006137b78582860161309c565b92505060206137c885828601613151565b9150509250929050565b60008060008060008060c087890312156137ef576137ee612f04565b5b600087013567ffffffffffffffff81111561380d5761380c612f09565b5b61381989828a01613548565b965050602061382a89828a0161309c565b955050604087013567ffffffffffffffff81111561384b5761384a612f09565b5b61385789828a01613548565b945050606087013567ffffffffffffffff81111561387857613877612f09565b5b61388489828a01613548565b935050608087013567ffffffffffffffff8111156138a5576138a4612f09565b5b6138b189828a01613548565b92505060a087013567ffffffffffffffff8111156138d2576138d1612f09565b5b6138de89828a01613548565b9150509295509295509295565b6000819050919050565b600061391061390b613906846130de565b6138eb565b6130de565b9050919050565b6000613922826138f5565b9050919050565b600061393482613917565b9050919050565b61394481613929565b82525050565b600060208201905061395f600083018461393b565b92915050565b6000806040838503121561397c5761397b612f04565b5b600061398a85828601613151565b925050602061399b85828601613151565b9150509250929050565b7f4e487b7100000000000000000000000000000000000000000000000000000000600052602260045260246000fd5b600060028204905060018216806139ec57607f821691505b6020821081036139ff576139fe6139a5565b5b50919050565b7f4552433732313a20617070726f76616c20746f2063757272656e74206f776e6560008201527f7200000000000000000000000000000000000000000000000000000000000000602082015250565b6000613a61602183612fd4565b9150613a6c82613a05565b604082019050919050565b60006020820190508181036000830152613a9081613a54565b9050919050565b7f4552433732313a20617070726f76652063616c6c6572206973206e6f7420746f60008201527f6b656e206f776e6572206f7220617070726f76656420666f7220616c6c000000602082015250565b6000613af3603d83612fd4565b9150613afe82613a97565b604082019050919050565b60006020820190508181036000830152613b2281613ae6565b9050919050565b7f4552433732313a2063616c6c6572206973206e6f7420746f6b656e206f776e6560008201527f72206f7220617070726f76656400000000000000000000000000000000000000602082015250565b6000613b85602d83612fd4565b9150613b9082613b29565b604082019050919050565b60006020820190508181036000830152613bb481613b78565b9050919050565b7f4e487b7100000000000000000000000000000000000000000000000000000000600052601160045260246000fd5b6000613bf58261307b565b91507fffffffffffffffffffffffffffffffffffffffffffffffffffffffffffffffff8203613c2757613c26613bbb565b5b600182019050919050565b7f536f72727920596f7520617265206e6f7420417574686f726973656400000000600082015250565b6000613c68601c83612fd4565b9150613c7382613c32565b602082019050919050565b60006020820190508181036000830152613c9781613c5b565b9050919050565b7f596f7520617265206e6f7420617574686f726973656400000000000000000000600082015250565b6000613cd4601683612fd4565b9150613cdf82613c9e565b602082019050919050565b60006020820190508181036000830152613d0381613cc7565b9050919050565b7f4552433732313a20696e76616c696420746f6b656e2049440000000000000000600082015250565b6000613d40601883612fd4565b9150613d4b82613d0a565b602082019050919050565b60006020820190508181036000830152613d6f81613d33565b9050919050565b7f4552433732313a2061646472657373207a65726f206973206e6f74206120766160008201527f6c6964206f776e65720000000000000000000000000000000000000000000000602082015250565b6000613dd2602983612fd4565b9150613ddd82613d76565b604082019050919050565b60006020820190508181036000830152613e0181613dc5565b9050919050565b60008190508160005260206000209050919050565b60006020601f8301049050919050565b600082821b905092915050565b600060088302613e6a7fffffffffffffffffffffffffffffffffffffffffffffffffffffffffffffffff82613e2d565b613e748683613e2d565b95508019841693508086168417925050509392505050565b6000613ea7613ea2613e9d8461307b565b6138eb565b61307b565b9050919050565b6000819050919050565b613ec183613e8c565b613ed5613ecd82613eae565b848454613e3a565b825550505050565b600090565b613eea613edd565b613ef5818484613eb8565b505050565b5b81811015613f1957613f0e600082613ee2565b600181019050613efb565b5050565b601f821115613f5e57613f2f81613e08565b613f3884613e1d565b81016020851015613f47578190505b613f5b613f5385613e1d565b830182613efa565b50505b505050565b600082821c905092915050565b6000613f8160001984600802613f63565b1980831691505092915050565b6000613f9a8383613f70565b9150826002028217905092915050565b613fb382612fc9565b67ffffffffffffffff811115613fcc57613fcb61344b565b5b613fd682546139d4565b613fe1828285613f1d565b600060209050601f8311600181146140145760008415614002578287015190505b61400c8582613f8e565b865550614074565b601f19841661402286613e08565b60005b8281101561404a57848901518255600182019150602085019450602081019050614025565b868310156140675784890151614063601f891682613f70565b8355505b6001600288020188555050505b505050505050565b7f4e6f7420746865204f776e657200000000000000000000000000000000000000600082015250565b60006140b2600d83612fd4565b91506140bd8261407c565b602082019050919050565b600060208201905081810360008301526140e1816140a5565b9050919050565b600081905092915050565b60006140fe82612fc9565b61410881856140e8565b9350614118818560208601612fe5565b80840191505092915050565b600061413082856140f3565b915061413c82846140f3565b91508190509392505050565b60008160011c9050919050565b6000808291508390505b600185111561419f5780860481111561417b5761417a613bbb565b5b600185161561418a5780820291505b808102905061419885614148565b945061415f565b94509492505050565b6000826141b85760019050614274565b816141c65760009050614274565b81600181146141dc57600281146141e657614215565b6001915050614274565b60ff8411156141f8576141f7613bbb565b5b8360020a91508482111561420f5761420e613bbb565b5b50614274565b5060208310610133831016604e8410600b841016171561424a5782820a90508381111561424557614244613bbb565b5b614274565b6142578484846001614155565b9250905081840481111561426e5761426d613bbb565b5b81810290505b9392505050565b60006142868261307b565b91506142918361307b565b92506142be7fffffffffffffffffffffffffffffffffffffffffffffffffffffffffffffffff84846141a8565b905092915050565b60006142d18261307b565b91506142dc8361307b565b92508282026142ea8161307b565b9150828204841483151761430157614300613bbb565b5b5092915050565b600060608201905061431d6000830186613110565b61432a6020830185613110565b61433760408301846131a6565b949350505050565b60008151905061434e81613602565b92915050565b60006020828403121561436a57614369612f04565b5b60006143788482850161433f565b91505092915050565b7f4552433732313a207472616e736665722066726f6d20696e636f72726563742060008201527f6f776e6572000000000000000000000000000000000000000000000000000000602082015250565b60006143dd602583612fd4565b91506143e882614381565b604082019050919050565b6000602082019050818103600083015261440c816143d0565b9050919050565b7f4552433732313a207472616e7366657220746f20746865207a65726f2061646460008201527f7265737300000000000000000000000000000000000000000000000000000000602082015250565b600061446f602483612fd4565b915061447a82614413565b604082019050919050565b6000602082019050818103600083015261449e81614462565b9050919050565b7f4552433732313a20617070726f766520746f2063616c6c657200000000000000600082015250565b60006144db601983612fd4565b91506144e6826144a5565b602082019050919050565b6000602082019050818103600083015261450a816144ce565b9050919050565b7f4552433732313a207472616e7366657220746f206e6f6e20455243373231526560008201527f63656976657220696d706c656d656e7465720000000000000000000000000000602082015250565b600061456d603283612fd4565b915061457882614511565b604082019050919050565b6000602082019050818103600083015261459c81614560565b9050919050565b7f4552433732313a206d696e7420746f20746865207a65726f2061646472657373600082015250565b60006145d9602083612fd4565b91506145e4826145a3565b602082019050919050565b60006020820190508181036000830152614608816145cc565b9050919050565b7f4552433732313a20746f6b656e20616c7265616479206d696e74656400000000600082015250565b6000614645601c83612fd4565b91506146508261460f565b602082019050919050565b6000602082019050818103600083015261467481614638565b9050919050565b7f45524337323155524953746f726167653a2055524920736574206f66206e6f6e60008201527f6578697374656e7420746f6b656e000000000000000000000000000000000000602082015250565b60006146d7602e83612fd4565b91506146e28261467b565b604082019050919050565b60006020820190508181036000830152614706816146ca565b9050919050565b600081519050919050565b600082825260208201905092915050565b60006147348261470d565b61473e8185614718565b935061474e818560208601612fe5565b6147578161300f565b840191505092915050565b60006080820190506147776000830187613110565b6147846020830186613110565b61479160408301856131a6565b81810360608301526147a38184614729565b905095945050505050565b6000815190506147bd81612f3a565b92915050565b6000602082840312156147d9576147d8612f04565b5b60006147e7848285016147ae565b91505092915050565b7f4e487b7100000000000000000000000000000000000000000000000000000000600052601260045260246000fdfea26469706673582212205a54633b1adb688781d5644bd111bb186a3ad47816b7c920ac78f07598f310b264736f6c63430008130033",
  "immutableReferences": {},
  "source": "// SPDX-License-Identifier: MIT\npragma solidity ^0.8.7;\nimport \"@openzeppelin/contracts/token/ERC721/extensions/ERC721URIStorage.sol\";\nimport \"@openzeppelin/contracts/token/ERC20/IERC20.sol\";\n\n\ncontract LandRegister is ERC721URIStorage {\n    IERC20 public token1;\n    address public superAdmin;\n\n    constructor(address token) ERC721(\"TerraLandNFT\", \"TLNFT\") {\n        token1 = IERC20(token);\n        superAdmin = msg.sender;\n    }\n\n    uint256 public reqCounter = 0;\n    mapping(address => bool) public AdminWhitelist;\n\n    struct buyer {\n        uint256[] request;\n        uint256[] lands;\n        address wallet;\n        string metadata;\n    }\n    struct requestLands {\n        uint256 LandId;\n        uint256 bid;\n        bool state;\n    }\n    enum Status {\n        sold,\n        onSale,\n        awaitingPayment,\n        reserved\n    }\n\n    uint256 public Counter = 0;\n    struct Land {\n        uint256 id;\n        string long;\n        string lat;\n        string name;\n        string imageURI;\n        address CurrentOwner;\n        string metadata;\n        uint256 currPrice;\n        Status status;\n        address[] Owners;\n    }\n    mapping(uint256 => Land) public allLands;\n    mapping(address => buyer) public allBuyers;\n    mapping(uint256 => requestLands) public allrequests;\n\n    function Signup(address wallet, string memory kycData) public {\n        buyer memory newBuyer;\n        newBuyer.wallet = wallet;\n        newBuyer.metadata = kycData;\n        allBuyers[wallet] = newBuyer;\n    }\n\n    function whiteList(address add) public {\n        require(msg.sender == superAdmin, \"You are not authorised\");\n        AdminWhitelist[add] = true;\n    }\n\n    function request(\n        uint256 id,\n        uint256 bid,\n        address wallet\n    ) public {\n        allBuyers[wallet].request.push(id);\n        requestLands memory newLand;\n        allrequests[reqCounter] = newLand;\n        allrequests[reqCounter].state = true;\n        allrequests[reqCounter].bid = bid;\n        allrequests[reqCounter].LandId = id;\n        reqCounter++;\n    }\n\n    function approve(uint256 reqId, address approvedOwner) public {\n        require(\n            AdminWhitelist[msg.sender] == true,\n            \"Sorry You are not Authorised\"\n        );\n        allLands[allrequests[reqId].LandId].CurrentOwner = approvedOwner;\n        allLands[allrequests[reqId].LandId].status = Status.awaitingPayment;\n        allrequests[reqId].state = false;\n    }\n\n    function transferLand(uint256 id, address receiver) public {\n        require(msg.sender == allLands[id].CurrentOwner, \"Not the Owner\");\n        allLands[id].Owners.push(receiver);\n        allLands[id].CurrentOwner = receiver;\n        safeTransferFrom(allLands[id].CurrentOwner, receiver, id);\n    }\n\n    function buy(uint256 id, uint256 price) public {\n        require(\n            msg.sender == allLands[id].CurrentOwner,\n            \"Sorry You are not Authorised\"\n        );\n        allLands[id].status = Status.sold;\n        uint256 decimals = 18;\n        uint256 finalPrice = price * 10**decimals;\n        token1.transferFrom(msg.sender, superAdmin, finalPrice);\n        transferLand(id, msg.sender);\n    }\n\n    function putOnSale(uint256 id, uint256 price) public {\n        require(\n            msg.sender == allLands[id].CurrentOwner,\n            \"Sorry You are not Authorised\"\n        );\n        allLands[id].status = Status.onSale;\n        allLands[id].currPrice = price;\n    }\n\n    function addLand(\n        string memory name,\n        uint256 currPrice,\n        string memory image,\n        string memory metadata,\n        string memory long,\n        string memory lat\n    ) public {\n        require(\n            AdminWhitelist[msg.sender] == true,\n            \"Sorry You are not Authorised\"\n        );\n        uint256 id = Counter;\n\n        Land memory newLand;\n        newLand.id = id;\n        newLand.name = name;\n        newLand.CurrentOwner = msg.sender;\n        newLand.currPrice = currPrice;\n        newLand.long = long;\n        newLand.lat = lat;\n        newLand.metadata = metadata;\n        newLand.imageURI = image;\n        allLands[id] = newLand;\n        allLands[id].status = Status.onSale;\n        allLands[id].Owners.push(msg.sender);\n        _mint(msg.sender, id);\n        _setTokenURI(id, allLands[id].metadata);\n        Counter++;\n    }\n}\n",
  "sourcePath": "A:\\Sem-VI\\Distributed Systems\\Projects\\Land-Registry\\truffle\\contracts\\LandRegister.sol",
  "compiler": {
    "name": "solc",
    "version": "0.8.19+commit.7dd6d404.Emscripten.clang"
  },
  "schemaVersion": "3.4.8",
  "updatedAt": "2023-04-30T00:20:02.262Z",
  "networkType": "ethereum",
  "devdoc": {
    "events": {
      "Approval(address,address,uint256)": {
        "details": "Emitted when `owner` enables `approved` to manage the `tokenId` token."
      },
      "ApprovalForAll(address,address,bool)": {
        "details": "Emitted when `owner` enables or disables (`approved`) `operator` to manage all of its assets."
      },
      "Transfer(address,address,uint256)": {
        "details": "Emitted when `tokenId` token is transferred from `from` to `to`."
      }
    },
    "kind": "dev",
    "methods": {
      "approve(address,uint256)": {
        "details": "See {IERC721-approve}."
      },
      "balanceOf(address)": {
        "details": "See {IERC721-balanceOf}."
      },
      "getApproved(uint256)": {
        "details": "See {IERC721-getApproved}."
      },
      "isApprovedForAll(address,address)": {
        "details": "See {IERC721-isApprovedForAll}."
      },
      "name()": {
        "details": "See {IERC721Metadata-name}."
      },
      "ownerOf(uint256)": {
        "details": "See {IERC721-ownerOf}."
      },
      "safeTransferFrom(address,address,uint256)": {
        "details": "See {IERC721-safeTransferFrom}."
      },
      "safeTransferFrom(address,address,uint256,bytes)": {
        "details": "See {IERC721-safeTransferFrom}."
      },
      "setApprovalForAll(address,bool)": {
        "details": "See {IERC721-setApprovalForAll}."
      },
      "supportsInterface(bytes4)": {
        "details": "See {IERC165-supportsInterface}."
      },
      "symbol()": {
        "details": "See {IERC721Metadata-symbol}."
      },
      "tokenURI(uint256)": {
        "details": "See {IERC721Metadata-tokenURI}."
      },
      "transferFrom(address,address,uint256)": {
        "details": "See {IERC721-transferFrom}."
      }
    },
    "version": 1
  },
  "userdoc": {
    "kind": "user",
    "methods": {},
    "version": 1
  }
}